{"contracts/KnowEmpireEscrow.sol":{"KnowEmpireEscrow":{"abi":[{"inputs":[{"internalType":"address","name":"_usdc","type":"address"},{"internalType":"address","name":"_platformWallet","type":"address"}],"stateMutability":"nonpayable","type":"constructor"},{"inputs":[],"name":"EnforcedPause","type":"error"},{"inputs":[],"name":"ExpectedPause","type":"error"},{"inputs":[{"internalType":"address","name":"owner","type":"address"}],"name":"OwnableInvalidOwner","type":"error"},{"inputs":[{"internalType":"address","name":"account","type":"address"}],"name":"OwnableUnauthorizedAccount","type":"error"},{"inputs":[],"name":"ReentrancyGuardReentrantCall","type":"error"},{"anonymous":false,"inputs":[{"indexed":true,"internalType":"bytes32","name":"escrowId","type":"bytes32"},{"indexed":false,"internalType":"uint256","name":"deliveredAt","type":"uint256"}],"name":"DeliveryConfirmedBySeller","type":"event"},{"anonymous":false,"inputs":[{"indexed":true,"internalType":"bytes32","name":"escrowId","type":"bytes32"}],"name":"EscrowCompleted","type":"event"},{"anonymous":false,"inputs":[{"indexed":true,"internalType":"bytes32","name":"escrowId","type":"bytes32"}],"name":"EscrowConfirmed","type":"event"},{"anonymous":false,"inputs":[{"indexed":true,"internalType":"bytes32","name":"escrowId","type":"bytes32"},{"indexed":true,"internalType":"address","name":"buyer","type":"address"},{"indexed":true,"internalType":"address","name":"seller","type":"address"},{"indexed":false,"internalType":"uint256","name":"amount","type":"uint256"},{"indexed":false,"internalType":"string","name":"orderId","type":"string"}],"name":"EscrowCreated","type":"event"},{"anonymous":false,"inputs":[{"indexed":true,"internalType":"bytes32","name":"escrowId","type":"bytes32"}],"name":"EscrowDisputed","type":"event"},{"anonymous":false,"inputs":[{"indexed":false,"internalType":"uint256","name":"newFeeBasisPoints","type":"uint256"}],"name":"EscrowFeeUpdated","type":"event"},{"anonymous":false,"inputs":[{"indexed":true,"internalType":"bytes32","name":"escrowId","type":"bytes32"},{"indexed":false,"internalType":"uint256","name":"amount","type":"uint256"}],"name":"EscrowFunded","type":"event"},{"anonymous":false,"inputs":[{"indexed":true,"internalType":"bytes32","name":"escrowId","type":"bytes32"}],"name":"EscrowRefunded","type":"event"},{"anonymous":false,"inputs":[{"indexed":false,"internalType":"uint16","name":"newFee","type":"uint16"}],"name":"FeeUpdated","type":"event"},{"anonymous":false,"inputs":[{"indexed":true,"internalType":"address","name":"previousOwner","type":"address"},{"indexed":true,"internalType":"address","name":"newOwner","type":"address"}],"name":"OwnershipTransferred","type":"event"},{"anonymous":false,"inputs":[{"indexed":false,"internalType":"address","name":"account","type":"address"}],"name":"Paused","type":"event"},{"anonymous":false,"inputs":[{"indexed":true,"internalType":"address","name":"newWallet","type":"address"}],"name":"PlatformWalletUpdated","type":"event"},{"anonymous":false,"inputs":[{"indexed":false,"internalType":"address","name":"account","type":"address"}],"name":"Unpaused","type":"event"},{"inputs":[],"name":"AUTO_RELEASE_DELAY","outputs":[{"internalType":"uint256","name":"","type":"uint256"}],"stateMutability":"view","type":"function"},{"inputs":[],"name":"USDC","outputs":[{"internalType":"contract IERC20","name":"","type":"address"}],"stateMutability":"view","type":"function"},{"inputs":[{"internalType":"bytes32","name":"escrowId","type":"bytes32"}],"name":"checkAndAutoRelease","outputs":[],"stateMutability":"nonpayable","type":"function"},{"inputs":[{"internalType":"bytes32","name":"escrowId","type":"bytes32"}],"name":"confirmDelivery","outputs":[],"stateMutability":"nonpayable","type":"function"},{"inputs":[{"internalType":"bytes32","name":"escrowId","type":"bytes32"}],"name":"confirmDeliveryBySeller","outputs":[],"stateMutability":"nonpayable","type":"function"},{"inputs":[{"internalType":"address","name":"_seller","type":"address"},{"internalType":"uint256","name":"_amount","type":"uint256"},{"internalType":"string","name":"_orderId","type":"string"}],"name":"createEscrow","outputs":[{"internalType":"bytes32","name":"","type":"bytes32"}],"stateMutability":"nonpayable","type":"function"},{"inputs":[],"name":"escrowFeeBasisPoints","outputs":[{"internalType":"uint256","name":"","type":"uint256"}],"stateMutability":"view","type":"function"},{"inputs":[{"internalType":"bytes32","name":"","type":"bytes32"}],"name":"escrows","outputs":[{"internalType":"address","name":"buyer","type":"address"},{"internalType":"address","name":"seller","type":"address"},{"internalType":"uint256","name":"amount","type":"uint256"},{"internalType":"uint256","name":"createdAt","type":"uint256"},{"internalType":"uint256","name":"deliveredAt","type":"uint256"},{"internalType":"enum KnowEmpireEscrow.EscrowState","name":"state","type":"uint8"},{"internalType":"string","name":"orderId","type":"string"},{"internalType":"bool","name":"isActive","type":"bool"}],"stateMutability":"view","type":"function"},{"inputs":[{"internalType":"bytes32","name":"escrowId","type":"bytes32"}],"name":"getEscrow","outputs":[{"internalType":"address","name":"buyer","type":"address"},{"internalType":"address","name":"seller","type":"address"},{"internalType":"uint256","name":"amount","type":"uint256"},{"internalType":"uint256","name":"createdAt","type":"uint256"},{"internalType":"enum KnowEmpireEscrow.EscrowState","name":"state","type":"uint8"},{"internalType":"string","name":"orderId","type":"string"},{"internalType":"bool","name":"isActive","type":"bool"}],"stateMutability":"view","type":"function"},{"inputs":[{"internalType":"bytes32","name":"escrowId","type":"bytes32"}],"name":"initiateDispute","outputs":[],"stateMutability":"nonpayable","type":"function"},{"inputs":[{"internalType":"bytes32","name":"escrowId","type":"bytes32"}],"name":"isEligibleForAutoRelease","outputs":[{"internalType":"bool","name":"","type":"bool"}],"stateMutability":"view","type":"function"},{"inputs":[],"name":"owner","outputs":[{"internalType":"address","name":"","type":"address"}],"stateMutability":"view","type":"function"},{"inputs":[],"name":"pause","outputs":[],"stateMutability":"nonpayable","type":"function"},{"inputs":[],"name":"paused","outputs":[{"internalType":"bool","name":"","type":"bool"}],"stateMutability":"view","type":"function"},{"inputs":[],"name":"platformWallet","outputs":[{"internalType":"address","name":"","type":"address"}],"stateMutability":"view","type":"function"},{"inputs":[{"internalType":"bytes32","name":"escrowId","type":"bytes32"}],"name":"refundBuyer","outputs":[],"stateMutability":"nonpayable","type":"function"},{"inputs":[],"name":"renounceOwnership","outputs":[],"stateMutability":"nonpayable","type":"function"},{"inputs":[{"internalType":"address","name":"newOwner","type":"address"}],"name":"transferOwnership","outputs":[],"stateMutability":"nonpayable","type":"function"},{"inputs":[],"name":"unpause","outputs":[],"stateMutability":"nonpayable","type":"function"},{"inputs":[{"internalType":"uint256","name":"_newFeeBasisPoints","type":"uint256"}],"name":"updateEscrowFee","outputs":[],"stateMutability":"nonpayable","type":"function"},{"inputs":[{"internalType":"address","name":"_newWallet","type":"address"}],"name":"updatePlatformWallet","outputs":[],"stateMutability":"nonpayable","type":"function"}],"evm":{"bytecode":{"linkReferences":{},"object":"60a06040526101f46003553480156200001757600080fd5b50604051620020b8380380620020b88339810160408190526200003a91620001c8565b600160005533806200006757604051631e4fbdf760e01b8152600060048201526024015b60405180910390fd5b620000728162000159565b506001805460ff60a01b191690556001600160a01b038216620000d85760405162461bcd60e51b815260206004820152601460248201527f496e76616c69642055534443206164647265737300000000000000000000000060448201526064016200005e565b6001600160a01b038116620001305760405162461bcd60e51b815260206004820152601f60248201527f496e76616c696420706c6174666f726d2077616c6c657420616464726573730060448201526064016200005e565b6001600160a01b03918216608052600280546001600160a01b0319169190921617905562000200565b600180546001600160a01b038381166001600160a01b0319831681179093556040519116919082907f8be0079c531659141344cd1fd0a4f28419497f9722a3daafe3b4186f6b6457e090600090a35050565b80516001600160a01b0381168114620001c357600080fd5b919050565b60008060408385031215620001dc57600080fd5b620001e783620001ab565b9150620001f760208401620001ab565b90509250929050565b608051611e726200024660003960008181610225015281816105d6015281816108220152818161090001528181610ee901528181610fc701526111cd0152611e726000f3fe608060405234801561001057600080fd5b50600436106101375760003560e01c80637b2e941e116100b8578063b55737b01161007c578063b55737b014610283578063e334e8dd14610296578063f023b811146102a9578063f2fde38b146102cf578063fa2af9da146102e2578063fac6725d146102f557600080fd5b80637b2e941e146102055780638456cb591461021857806389a30271146102205780638da5cb5b1461025f578063ada4ef301461027057600080fd5b80635e314b32116100ff5780635e314b32146101bb57806367afa362146101ce578063715018a6146101d757806374950ffd146101df57806377940c04146101f257600080fd5b806309499aa61461013c5780632d83549c146101595780633d2098d9146101805780633f4ba83a146101955780635c975abb1461019d575b600080fd5b6101466203f48081565b6040519081526020015b60405180910390f35b61016c610167366004611910565b610308565b6040516101509897969594939291906119b1565b61019361018e366004611910565b6103e9565b005b6101936104cb565b600154600160a01b900460ff165b6040519015158152602001610150565b6101936101c9366004611910565b6104dd565b61014660035481565b6101936106c4565b6101936101ed366004611910565b6106d6565b610193610200366004611910565b610a14565b610193610213366004611910565b610b41565b610193610c59565b6102477f000000000000000000000000000000000000000000000000000000000000000081565b6040516001600160a01b039091168152602001610150565b6001546001600160a01b0316610247565b61019361027e366004611a32565b610c69565b610193610291366004611910565b610d11565b6101466102a4366004611a63565b6110fa565b6102bc6102b7366004611910565b611440565b6040516101509796959493929190611b2e565b6101936102dd366004611a32565b6115b4565b600254610247906001600160a01b031681565b6101ab610303366004611910565b6115ef565b600460208190526000918252604090912080546001820154600283015460038401549484015460058501546006860180546001600160a01b039687169895909616969395929360ff9092169261035d90611b89565b80601f016020809104026020016040519081016040528092919081815260200182805461038990611b89565b80156103d65780601f106103ab576101008083540402835291602001916103d6565b820191906000526020600020905b8154815290600101906020018083116103b957829003601f168201915b5050506007909301549192505060ff1688565b6103f161177a565b600081116104465760405162461bcd60e51b815260206004820152601a60248201527f466565206d7573742062652067726561746572207468616e203000000000000060448201526064015b60405180910390fd5b6103e88111156104905760405162461bcd60e51b81526020600482015260156024820152744665652063616e6e6f74206578636565642031302560581b604482015260640161043d565b60038190556040518181527fd00d28c258e482c27ef6378915c157978b6d44943a89c62c8b4eec350e4e27099060200160405180910390a150565b6104d361177a565b6104db6117a7565b565b6104e561177a565b6104ed6117fc565b6000818152600460205260409020600781015460ff1661051f5760405162461bcd60e51b815260040161043d90611bc3565b6006600582015460ff16600681111561053a5761053a611929565b146105875760405162461bcd60e51b815260206004820152601760248201527f457363726f77206d757374206265206469737075746564000000000000000000604482015260640161043d565b60028101546005820180546004919060ff1916600183021790555060078201805460ff19169055815460405163a9059cbb60e01b81526001600160a01b039182166004820152602481018390527f00000000000000000000000000000000000000000000000000000000000000009091169063a9059cbb906044016020604051808303816000875af1158015610621573d6000803e3d6000fd5b505050506040513d601f19601f820116820180604052508101906106459190611bed565b61068a5760405162461bcd60e51b81526020600482015260166024820152751499599d5b99081d1c985b9cd9995c8819985a5b195960521b604482015260640161043d565b60405183907f7b08f2d2a35d68f512d4ee819cc6c616e61aa7cd7f7b0855d95ba090d84dc43690600090a250506106c16001600055565b50565b6106cc61177a565b6104db6000611826565b6106de6117fc565b6106e6611878565b6000818152600460205260409020600781015460ff166107185760405162461bcd60e51b815260040161043d90611bc3565b80546001600160a01b0316331461076a5760405162461bcd60e51b81526020600482015260166024820152754f6e6c792062757965722063616e20636f6e6669726d60501b604482015260640161043d565b6002600582015460ff16600681111561078557610785611929565b146107a25760405162461bcd60e51b815260040161043d90611c0f565b600061271060035483600201546107b99190611c53565b6107c39190611c70565b905060008183600201546107d79190611c92565b6005848101805460ff1990811690921790556007850180549091169055600184015460405163a9059cbb60e01b81526001600160a01b039182166004820152602481018390529192507f0000000000000000000000000000000000000000000000000000000000000000169063a9059cbb906044016020604051808303816000875af115801561086b573d6000803e3d6000fd5b505050506040513d601f19601f8201168201806040525081019061088f9190611bed565b6108d75760405162461bcd60e51b8152602060048201526019602482015278151c985b9cd9995c881d1bc81cd95b1b195c8819985a5b1959603a1b604482015260640161043d565b60025460405163a9059cbb60e01b81526001600160a01b039182166004820152602481018490527f00000000000000000000000000000000000000000000000000000000000000009091169063a9059cbb906044016020604051808303816000875af115801561094b573d6000803e3d6000fd5b505050506040513d601f19601f8201168201806040525081019061096f9190611bed565b6109b15760405162461bcd60e51b8152602060048201526013602482015272119959481d1c985b9cd9995c8819985a5b1959606a1b604482015260640161043d565b60405184907f996d2feeb670af091dc22c54aa1d2d4606fa0c1701217bdefc494e61bf209d7c90600090a260405184907ff13b3bfa8cd084cadab3723a031c3f1c641ce6072626163d3100c1cd14c18a2890600090a25050506106c16001600055565b610a1c6117fc565b610a24611878565b6000818152600460205260409020600781015460ff16610a565760405162461bcd60e51b815260040161043d90611bc3565b60018101546001600160a01b03163314610ab25760405162461bcd60e51b815260206004820181905260248201527f4f6e6c792073656c6c65722063616e20636f6e6669726d2064656c6976657279604482015260640161043d565b6001600582015460ff166006811115610acd57610acd611929565b14610aea5760405162461bcd60e51b815260040161043d90611c0f565b60058101805460ff19166002179055426004820181905560405190815282907fd5c5de7584205b4c356c2ee4565a620b70f3ac953304d40fee2978c42823175b9060200160405180910390a2506106c16001600055565b6000818152600460205260409020600781015460ff16610b735760405162461bcd60e51b815260040161043d90611bc3565b80546001600160a01b0316331480610b97575060018101546001600160a01b031633145b610be35760405162461bcd60e51b815260206004820181905260248201527f4f6e6c79206275796572206f722073656c6c65722063616e2064697370757465604482015260640161043d565b6002600582015460ff166006811115610bfe57610bfe611929565b14610c1b5760405162461bcd60e51b815260040161043d90611c0f565b60058101805460ff1916600617905560405182907f550ba3f95fa658596451573e6d789afa3858d8a992cb121712d3df88cff5765c90600090a25050565b610c6161177a565b6104db6118a3565b610c7161177a565b6001600160a01b038116610cc75760405162461bcd60e51b815260206004820152601f60248201527f496e76616c696420706c6174666f726d2077616c6c6574206164647265737300604482015260640161043d565b600280546001600160a01b0319166001600160a01b0383169081179091556040517f73238e3ae0a71b401b31ae67204506d074de41bd5c084082fba9b64b1c7fa28f90600090a250565b610d196117fc565b6000818152600460205260409020600781015460ff16610d4b5760405162461bcd60e51b815260040161043d90611bc3565b6002600582015460ff166006811115610d6657610d66611929565b14610db35760405162461bcd60e51b815260206004820181905260248201527f44656c6976657279206e6f7420636f6e6669726d65642062792073656c6c6572604482015260640161043d565b6000816004015411610e075760405162461bcd60e51b815260206004820152601a60248201527f44656c69766572792074696d657374616d70206e6f7420736574000000000000604482015260640161043d565b6203f4808160040154610e1a9190611ca5565b421015610e695760405162461bcd60e51b815260206004820152601a60248201527f4175746f2d72656c656173652064656c6179206e6f74206d6574000000000000604482015260640161043d565b60006127106003548360020154610e809190611c53565b610e8a9190611c70565b90506000818360020154610e9e9190611c92565b6005848101805460ff1990811690921790556007850180549091169055600184015460405163a9059cbb60e01b81526001600160a01b039182166004820152602481018390529192507f0000000000000000000000000000000000000000000000000000000000000000169063a9059cbb906044016020604051808303816000875af1158015610f32573d6000803e3d6000fd5b505050506040513d601f19601f82011682018060405250810190610f569190611bed565b610f9e5760405162461bcd60e51b8152602060048201526019602482015278151c985b9cd9995c881d1bc81cd95b1b195c8819985a5b1959603a1b604482015260640161043d565b60025460405163a9059cbb60e01b81526001600160a01b039182166004820152602481018490527f00000000000000000000000000000000000000000000000000000000000000009091169063a9059cbb906044016020604051808303816000875af1158015611012573d6000803e3d6000fd5b505050506040513d601f19601f820116820180604052508101906110369190611bed565b6110785760405162461bcd60e51b8152602060048201526013602482015272119959481d1c985b9cd9995c8819985a5b1959606a1b604482015260640161043d565b6005838101805460ff1916600183021790555060078301805460ff1916905560405184907f996d2feeb670af091dc22c54aa1d2d4606fa0c1701217bdefc494e61bf209d7c90600090a260405184907ff13b3bfa8cd084cadab3723a031c3f1c641ce6072626163d3100c1cd14c18a2890600090a25050506106c16001600055565b6000611104611878565b61110c6117fc565b6001600160a01b03841661115b5760405162461bcd60e51b8152602060048201526016602482015275496e76616c69642073656c6c6572206164647265737360501b604482015260640161043d565b600083116111ab5760405162461bcd60e51b815260206004820152601d60248201527f416d6f756e74206d7573742062652067726561746572207468616e2030000000604482015260640161043d565b6040516323b872dd60e01b8152336004820152306024820152604481018490527f00000000000000000000000000000000000000000000000000000000000000006001600160a01b0316906323b872dd906064016020604051808303816000875af115801561121e573d6000803e3d6000fd5b505050506040513d601f19601f820116820180604052508101906112429190611bed565b6112855760405162461bcd60e51b81526020600482015260146024820152731554d110c81d1c985b9cd9995c8819985a5b195960621b604482015260640161043d565b600042338686866040516020016112a0959493929190611cb8565b60408051808303601f190181528282528051602091820120610100840183523384526001600160a01b038981168386019081528585018a81524260608801908152600060808901818152600160a08b0181815260c08c018f905260e08c018290528884526004998a9052999092208a5181549088166001600160a01b03199182161782559551818401805491909816961695909517909555915160028401555160038301559151938101939093559251600583018054929650929390929160ff19169083600681111561137557611375611929565b021790555060c0820151600682019061138e9082611d5b565b5060e091909101516007909101805460ff19169115159190911790556040516001600160a01b03861690339083907fecfc64e6b5d00db90b689255403357841334dfc94584137e88c526dc65cbb713906113eb9089908990611e1b565b60405180910390a4807f08bc5e5162ba9d1a558b2d254f4739d54c8d7051230419652b328670bd68fc378560405161142591815260200190565b60405180910390a290506114396001600055565b9392505050565b600081815260046020818152604080842081516101008101835281546001600160a01b0390811682526001830154169381019390935260028101549183019190915260038101546060838101919091529281015460808301526005810154849384938493849384928392909160a083019060ff1660068111156114c5576114c5611929565b60068111156114d6576114d6611929565b81526020016006820180546114ea90611b89565b80601f016020809104026020016040519081016040528092919081815260200182805461151690611b89565b80156115635780601f1061153857610100808354040283529160200191611563565b820191906000526020600020905b81548152906001019060200180831161154657829003601f168201915b50505091835250506007919091015460ff1615156020918201528151908201516040830151606084015160a085015160c086015160e090960151949f939e50919c509a509850919650945092505050565b6115bc61177a565b6001600160a01b0381166115e657604051631e4fbdf760e01b81526000600482015260240161043d565b6106c181611826565b600081815260046020818152604080842081516101008101835281546001600160a01b0390811682526001830154169381019390935260028101549183019190915260038101546060830152918201546080820152600582015483929060a083019060ff16600681111561166557611665611929565b600681111561167657611676611929565b815260200160068201805461168a90611b89565b80601f01602080910402602001604051908101604052809291908181526020018280546116b690611b89565b80156117035780601f106116d857610100808354040283529160200191611703565b820191906000526020600020905b8154815290600101906020018083116116e657829003601f168201915b50505091835250506007919091015460ff16151560209091015260e08101519091508015611746575060028160a00151600681111561174457611744611929565b145b8015611756575060008160800151115b801561143957506203f48081608001516117709190611ca5565b4210159392505050565b6001546001600160a01b031633146104db5760405163118cdaa760e01b815233600482015260240161043d565b6117af6118e6565b6001805460ff60a01b191690557f5db9ee0a495bf2e6ff9c91a7834c1ba4fdd244a5e8aa4e537bd38aeae4b073aa335b6040516001600160a01b03909116815260200160405180910390a1565b60026000540361181f57604051633ee5aeb560e01b815260040160405180910390fd5b6002600055565b600180546001600160a01b038381166001600160a01b0319831681179093556040519116919082907f8be0079c531659141344cd1fd0a4f28419497f9722a3daafe3b4186f6b6457e090600090a35050565b600154600160a01b900460ff16156104db5760405163d93c066560e01b815260040160405180910390fd5b6118ab611878565b6001805460ff60a01b1916600160a01b1790557f62e78cea01bee320cd4e420270b5ea74000d11b0c9f74754ebdbfc544b05a2586117df3390565b600154600160a01b900460ff166104db57604051638dfc202b60e01b815260040160405180910390fd5b60006020828403121561192257600080fd5b5035919050565b634e487b7160e01b600052602160045260246000fd5b6007811061195d57634e487b7160e01b600052602160045260246000fd5b9052565b60005b8381101561197c578181015183820152602001611964565b50506000910152565b6000815180845261199d816020860160208601611961565b601f01601f19169290920160200192915050565b6001600160a01b0389811682528816602082015260408101879052606081018690526080810185905260006101006119ec60a084018761193f565b8060c08401526119fe81840186611985565b91505082151560e08301529998505050505050505050565b80356001600160a01b0381168114611a2d57600080fd5b919050565b600060208284031215611a4457600080fd5b61143982611a16565b634e487b7160e01b600052604160045260246000fd5b600080600060608486031215611a7857600080fd5b611a8184611a16565b925060208401359150604084013567ffffffffffffffff80821115611aa557600080fd5b818601915086601f830112611ab957600080fd5b813581811115611acb57611acb611a4d565b604051601f8201601f19908116603f01168101908382118183101715611af357611af3611a4d565b81604052828152896020848701011115611b0c57600080fd5b8260208601602083013760006020848301015280955050505050509250925092565b6001600160a01b0388811682528716602082015260408101869052606081018590526000611b5f608083018661193f565b60e060a0830152611b7360e0830185611985565b905082151560c083015298975050505050505050565b600181811c90821680611b9d57607f821691505b602082108103611bbd57634e487b7160e01b600052602260045260246000fd5b50919050565b60208082526010908201526f115cd8dc9bddc81b9bdd08199bdd5b9960821b604082015260600190565b600060208284031215611bff57600080fd5b8151801515811461143957600080fd5b602080825260149082015273496e76616c696420657363726f7720737461746560601b604082015260600190565b634e487b7160e01b600052601160045260246000fd5b8082028115828204841417611c6a57611c6a611c3d565b92915050565b600082611c8d57634e487b7160e01b600052601260045260246000fd5b500490565b81810381811115611c6a57611c6a611c3d565b80820180821115611c6a57611c6a611c3d565b85815260006bffffffffffffffffffffffff19808760601b166020840152808660601b166034840152508360488301528251611cfb816068850160208701611961565b919091016068019695505050505050565b601f821115611d5657600081815260208120601f850160051c81016020861015611d335750805b601f850160051c820191505b81811015611d5257828155600101611d3f565b5050505b505050565b815167ffffffffffffffff811115611d7557611d75611a4d565b611d8981611d838454611b89565b84611d0c565b602080601f831160018114611dbe5760008415611da65750858301515b600019600386901b1c1916600185901b178555611d52565b600085815260208120601f198616915b82811015611ded57888601518255948401946001909101908401611dce565b5085821015611e0b5787850151600019600388901b60f8161c191681555b5050505050600190811b01905550565b828152604060208201526000611e346040830184611985565b94935050505056fea26469706673582212202e6aefca2d7ee0a304f09f3c270efbc4d0b534e9882aa2bf989291bd2621b10064736f6c63430008140033","opcodes":"PUSH1 0xA0 PUSH1 0x40 MSTORE PUSH2 0x1F4 PUSH1 0x3 SSTORE CALLVALUE DUP1 ISZERO PUSH3 0x17 JUMPI PUSH1 0x0 DUP1 REVERT JUMPDEST POP PUSH1 0x40 MLOAD PUSH3 0x20B8 CODESIZE SUB DUP1 PUSH3 0x20B8 DUP4 CODECOPY DUP2 ADD PUSH1 0x40 DUP2 SWAP1 MSTORE PUSH3 0x3A SWAP2 PUSH3 0x1C8 JUMP JUMPDEST PUSH1 0x1 PUSH1 0x0 SSTORE CALLER DUP1 PUSH3 0x67 JUMPI PUSH1 0x40 MLOAD PUSH4 0x1E4FBDF7 PUSH1 0xE0 SHL DUP2 MSTORE PUSH1 0x0 PUSH1 0x4 DUP3 ADD MSTORE PUSH1 0x24 ADD JUMPDEST PUSH1 0x40 MLOAD DUP1 SWAP2 SUB SWAP1 REVERT JUMPDEST PUSH3 0x72 DUP2 PUSH3 0x159 JUMP JUMPDEST POP PUSH1 0x1 DUP1 SLOAD PUSH1 0xFF PUSH1 0xA0 SHL NOT AND SWAP1 SSTORE PUSH1 0x1 PUSH1 0x1 PUSH1 0xA0 SHL SUB DUP3 AND PUSH3 0xD8 JUMPI PUSH1 0x40 MLOAD PUSH3 0x461BCD PUSH1 0xE5 SHL DUP2 MSTORE PUSH1 0x20 PUSH1 0x4 DUP3 ADD MSTORE PUSH1 0x14 PUSH1 0x24 DUP3 ADD MSTORE PUSH32 0x496E76616C696420555344432061646472657373000000000000000000000000 PUSH1 0x44 DUP3 ADD MSTORE PUSH1 0x64 ADD PUSH3 0x5E JUMP JUMPDEST PUSH1 0x1 PUSH1 0x1 PUSH1 0xA0 SHL SUB DUP2 AND PUSH3 0x130 JUMPI PUSH1 0x40 MLOAD PUSH3 0x461BCD PUSH1 0xE5 SHL DUP2 MSTORE PUSH1 0x20 PUSH1 0x4 DUP3 ADD MSTORE PUSH1 0x1F PUSH1 0x24 DUP3 ADD MSTORE PUSH32 0x496E76616C696420706C6174666F726D2077616C6C6574206164647265737300 PUSH1 0x44 DUP3 ADD MSTORE PUSH1 0x64 ADD PUSH3 0x5E JUMP JUMPDEST PUSH1 0x1 PUSH1 0x1 PUSH1 0xA0 SHL SUB SWAP2 DUP3 AND PUSH1 0x80 MSTORE PUSH1 0x2 DUP1 SLOAD PUSH1 0x1 PUSH1 0x1 PUSH1 0xA0 SHL SUB NOT AND SWAP2 SWAP1 SWAP3 AND OR SWAP1 SSTORE PUSH3 0x200 JUMP JUMPDEST PUSH1 0x1 DUP1 SLOAD PUSH1 0x1 PUSH1 0x1 PUSH1 0xA0 SHL SUB DUP4 DUP2 AND PUSH1 0x1 PUSH1 0x1 PUSH1 0xA0 SHL SUB NOT DUP4 AND DUP2 OR SWAP1 SWAP4 SSTORE PUSH1 0x40 MLOAD SWAP2 AND SWAP2 SWAP1 DUP3 SWAP1 PUSH32 0x8BE0079C531659141344CD1FD0A4F28419497F9722A3DAAFE3B4186F6B6457E0 SWAP1 PUSH1 0x0 SWAP1 LOG3 POP POP JUMP JUMPDEST DUP1 MLOAD PUSH1 0x1 PUSH1 0x1 PUSH1 0xA0 SHL SUB DUP2 AND DUP2 EQ PUSH3 0x1C3 JUMPI PUSH1 0x0 DUP1 REVERT JUMPDEST SWAP2 SWAP1 POP JUMP JUMPDEST PUSH1 0x0 DUP1 PUSH1 0x40 DUP4 DUP6 SUB SLT ISZERO PUSH3 0x1DC JUMPI PUSH1 0x0 DUP1 REVERT JUMPDEST PUSH3 0x1E7 DUP4 PUSH3 0x1AB JUMP JUMPDEST SWAP2 POP PUSH3 0x1F7 PUSH1 0x20 DUP5 ADD PUSH3 0x1AB JUMP JUMPDEST SWAP1 POP SWAP3 POP SWAP3 SWAP1 POP JUMP JUMPDEST PUSH1 0x80 MLOAD PUSH2 0x1E72 PUSH3 0x246 PUSH1 0x0 CODECOPY PUSH1 0x0 DUP2 DUP2 PUSH2 0x225 ADD MSTORE DUP2 DUP2 PUSH2 0x5D6 ADD MSTORE DUP2 DUP2 PUSH2 0x822 ADD MSTORE DUP2 DUP2 PUSH2 0x900 ADD MSTORE DUP2 DUP2 PUSH2 0xEE9 ADD MSTORE DUP2 DUP2 PUSH2 0xFC7 ADD MSTORE PUSH2 0x11CD ADD MSTORE PUSH2 0x1E72 PUSH1 0x0 RETURN INVALID PUSH1 0x80 PUSH1 0x40 MSTORE CALLVALUE DUP1 ISZERO PUSH2 0x10 JUMPI PUSH1 0x0 DUP1 REVERT JUMPDEST POP PUSH1 0x4 CALLDATASIZE LT PUSH2 0x137 JUMPI PUSH1 0x0 CALLDATALOAD PUSH1 0xE0 SHR DUP1 PUSH4 0x7B2E941E GT PUSH2 0xB8 JUMPI DUP1 PUSH4 0xB55737B0 GT PUSH2 0x7C JUMPI DUP1 PUSH4 0xB55737B0 EQ PUSH2 0x283 JUMPI DUP1 PUSH4 0xE334E8DD EQ PUSH2 0x296 JUMPI DUP1 PUSH4 0xF023B811 EQ PUSH2 0x2A9 JUMPI DUP1 PUSH4 0xF2FDE38B EQ PUSH2 0x2CF JUMPI DUP1 PUSH4 0xFA2AF9DA EQ PUSH2 0x2E2 JUMPI DUP1 PUSH4 0xFAC6725D EQ PUSH2 0x2F5 JUMPI PUSH1 0x0 DUP1 REVERT JUMPDEST DUP1 PUSH4 0x7B2E941E EQ PUSH2 0x205 JUMPI DUP1 PUSH4 0x8456CB59 EQ PUSH2 0x218 JUMPI DUP1 PUSH4 0x89A30271 EQ PUSH2 0x220 JUMPI DUP1 PUSH4 0x8DA5CB5B EQ PUSH2 0x25F JUMPI DUP1 PUSH4 0xADA4EF30 EQ PUSH2 0x270 JUMPI PUSH1 0x0 DUP1 REVERT JUMPDEST DUP1 PUSH4 0x5E314B32 GT PUSH2 0xFF JUMPI DUP1 PUSH4 0x5E314B32 EQ PUSH2 0x1BB JUMPI DUP1 PUSH4 0x67AFA362 EQ PUSH2 0x1CE JUMPI DUP1 PUSH4 0x715018A6 EQ PUSH2 0x1D7 JUMPI DUP1 PUSH4 0x74950FFD EQ PUSH2 0x1DF JUMPI DUP1 PUSH4 0x77940C04 EQ PUSH2 0x1F2 JUMPI PUSH1 0x0 DUP1 REVERT JUMPDEST DUP1 PUSH4 0x9499AA6 EQ PUSH2 0x13C JUMPI DUP1 PUSH4 0x2D83549C EQ PUSH2 0x159 JUMPI DUP1 PUSH4 0x3D2098D9 EQ PUSH2 0x180 JUMPI DUP1 PUSH4 0x3F4BA83A EQ PUSH2 0x195 JUMPI DUP1 PUSH4 0x5C975ABB EQ PUSH2 0x19D JUMPI JUMPDEST PUSH1 0x0 DUP1 REVERT JUMPDEST PUSH2 0x146 PUSH3 0x3F480 DUP2 JUMP JUMPDEST PUSH1 0x40 MLOAD SWAP1 DUP2 MSTORE PUSH1 0x20 ADD JUMPDEST PUSH1 0x40 MLOAD DUP1 SWAP2 SUB SWAP1 RETURN JUMPDEST PUSH2 0x16C PUSH2 0x167 CALLDATASIZE PUSH1 0x4 PUSH2 0x1910 JUMP JUMPDEST PUSH2 0x308 JUMP JUMPDEST PUSH1 0x40 MLOAD PUSH2 0x150 SWAP9 SWAP8 SWAP7 SWAP6 SWAP5 SWAP4 SWAP3 SWAP2 SWAP1 PUSH2 0x19B1 JUMP JUMPDEST PUSH2 0x193 PUSH2 0x18E CALLDATASIZE PUSH1 0x4 PUSH2 0x1910 JUMP JUMPDEST PUSH2 0x3E9 JUMP JUMPDEST STOP JUMPDEST PUSH2 0x193 PUSH2 0x4CB JUMP JUMPDEST PUSH1 0x1 SLOAD PUSH1 0x1 PUSH1 0xA0 SHL SWAP1 DIV PUSH1 0xFF AND JUMPDEST PUSH1 0x40 MLOAD SWAP1 ISZERO ISZERO DUP2 MSTORE PUSH1 0x20 ADD PUSH2 0x150 JUMP JUMPDEST PUSH2 0x193 PUSH2 0x1C9 CALLDATASIZE PUSH1 0x4 PUSH2 0x1910 JUMP JUMPDEST PUSH2 0x4DD JUMP JUMPDEST PUSH2 0x146 PUSH1 0x3 SLOAD DUP2 JUMP JUMPDEST PUSH2 0x193 PUSH2 0x6C4 JUMP JUMPDEST PUSH2 0x193 PUSH2 0x1ED CALLDATASIZE PUSH1 0x4 PUSH2 0x1910 JUMP JUMPDEST PUSH2 0x6D6 JUMP JUMPDEST PUSH2 0x193 PUSH2 0x200 CALLDATASIZE PUSH1 0x4 PUSH2 0x1910 JUMP JUMPDEST PUSH2 0xA14 JUMP JUMPDEST PUSH2 0x193 PUSH2 0x213 CALLDATASIZE PUSH1 0x4 PUSH2 0x1910 JUMP JUMPDEST PUSH2 0xB41 JUMP JUMPDEST PUSH2 0x193 PUSH2 0xC59 JUMP JUMPDEST PUSH2 0x247 PUSH32 0x0 DUP2 JUMP JUMPDEST PUSH1 0x40 MLOAD PUSH1 0x1 PUSH1 0x1 PUSH1 0xA0 SHL SUB SWAP1 SWAP2 AND DUP2 MSTORE PUSH1 0x20 ADD PUSH2 0x150 JUMP JUMPDEST PUSH1 0x1 SLOAD PUSH1 0x1 PUSH1 0x1 PUSH1 0xA0 SHL SUB AND PUSH2 0x247 JUMP JUMPDEST PUSH2 0x193 PUSH2 0x27E CALLDATASIZE PUSH1 0x4 PUSH2 0x1A32 JUMP JUMPDEST PUSH2 0xC69 JUMP JUMPDEST PUSH2 0x193 PUSH2 0x291 CALLDATASIZE PUSH1 0x4 PUSH2 0x1910 JUMP JUMPDEST PUSH2 0xD11 JUMP JUMPDEST PUSH2 0x146 PUSH2 0x2A4 CALLDATASIZE PUSH1 0x4 PUSH2 0x1A63 JUMP JUMPDEST PUSH2 0x10FA JUMP JUMPDEST PUSH2 0x2BC PUSH2 0x2B7 CALLDATASIZE PUSH1 0x4 PUSH2 0x1910 JUMP JUMPDEST PUSH2 0x1440 JUMP JUMPDEST PUSH1 0x40 MLOAD PUSH2 0x150 SWAP8 SWAP7 SWAP6 SWAP5 SWAP4 SWAP3 SWAP2 SWAP1 PUSH2 0x1B2E JUMP JUMPDEST PUSH2 0x193 PUSH2 0x2DD CALLDATASIZE PUSH1 0x4 PUSH2 0x1A32 JUMP JUMPDEST PUSH2 0x15B4 JUMP JUMPDEST PUSH1 0x2 SLOAD PUSH2 0x247 SWAP1 PUSH1 0x1 PUSH1 0x1 PUSH1 0xA0 SHL SUB AND DUP2 JUMP JUMPDEST PUSH2 0x1AB PUSH2 0x303 CALLDATASIZE PUSH1 0x4 PUSH2 0x1910 JUMP JUMPDEST PUSH2 0x15EF JUMP JUMPDEST PUSH1 0x4 PUSH1 0x20 DUP2 SWAP1 MSTORE PUSH1 0x0 SWAP2 DUP3 MSTORE PUSH1 0x40 SWAP1 SWAP2 KECCAK256 DUP1 SLOAD PUSH1 0x1 DUP3 ADD SLOAD PUSH1 0x2 DUP4 ADD SLOAD PUSH1 0x3 DUP5 ADD SLOAD SWAP5 DUP5 ADD SLOAD PUSH1 0x5 DUP6 ADD SLOAD PUSH1 0x6 DUP7 ADD DUP1 SLOAD PUSH1 0x1 PUSH1 0x1 PUSH1 0xA0 SHL SUB SWAP7 DUP8 AND SWAP9 SWAP6 SWAP1 SWAP7 AND SWAP7 SWAP4 SWAP6 SWAP3 SWAP4 PUSH1 0xFF SWAP1 SWAP3 AND SWAP3 PUSH2 0x35D SWAP1 PUSH2 0x1B89 JUMP JUMPDEST DUP1 PUSH1 0x1F ADD PUSH1 0x20 DUP1 SWAP2 DIV MUL PUSH1 0x20 ADD PUSH1 0x40 MLOAD SWAP1 DUP2 ADD PUSH1 0x40 MSTORE DUP1 SWAP3 SWAP2 SWAP1 DUP2 DUP2 MSTORE PUSH1 0x20 ADD DUP3 DUP1 SLOAD PUSH2 0x389 SWAP1 PUSH2 0x1B89 JUMP JUMPDEST DUP1 ISZERO PUSH2 0x3D6 JUMPI DUP1 PUSH1 0x1F LT PUSH2 0x3AB JUMPI PUSH2 0x100 DUP1 DUP4 SLOAD DIV MUL DUP4 MSTORE SWAP2 PUSH1 0x20 ADD SWAP2 PUSH2 0x3D6 JUMP JUMPDEST DUP3 ADD SWAP2 SWAP1 PUSH1 0x0 MSTORE PUSH1 0x20 PUSH1 0x0 KECCAK256 SWAP1 JUMPDEST DUP2 SLOAD DUP2 MSTORE SWAP1 PUSH1 0x1 ADD SWAP1 PUSH1 0x20 ADD DUP1 DUP4 GT PUSH2 0x3B9 JUMPI DUP3 SWAP1 SUB PUSH1 0x1F AND DUP3 ADD SWAP2 JUMPDEST POP POP POP PUSH1 0x7 SWAP1 SWAP4 ADD SLOAD SWAP2 SWAP3 POP POP PUSH1 0xFF AND DUP9 JUMP JUMPDEST PUSH2 0x3F1 PUSH2 0x177A JUMP JUMPDEST PUSH1 0x0 DUP2 GT PUSH2 0x446 JUMPI PUSH1 0x40 MLOAD PUSH3 0x461BCD PUSH1 0xE5 SHL DUP2 MSTORE PUSH1 0x20 PUSH1 0x4 DUP3 ADD MSTORE PUSH1 0x1A PUSH1 0x24 DUP3 ADD MSTORE PUSH32 0x466565206D7573742062652067726561746572207468616E2030000000000000 PUSH1 0x44 DUP3 ADD MSTORE PUSH1 0x64 ADD JUMPDEST PUSH1 0x40 MLOAD DUP1 SWAP2 SUB SWAP1 REVERT JUMPDEST PUSH2 0x3E8 DUP2 GT ISZERO PUSH2 0x490 JUMPI PUSH1 0x40 MLOAD PUSH3 0x461BCD PUSH1 0xE5 SHL DUP2 MSTORE PUSH1 0x20 PUSH1 0x4 DUP3 ADD MSTORE PUSH1 0x15 PUSH1 0x24 DUP3 ADD MSTORE PUSH21 0x4665652063616E6E6F742065786365656420313025 PUSH1 0x58 SHL PUSH1 0x44 DUP3 ADD MSTORE PUSH1 0x64 ADD PUSH2 0x43D JUMP JUMPDEST PUSH1 0x3 DUP2 SWAP1 SSTORE PUSH1 0x40 MLOAD DUP2 DUP2 MSTORE PUSH32 0xD00D28C258E482C27EF6378915C157978B6D44943A89C62C8B4EEC350E4E2709 SWAP1 PUSH1 0x20 ADD PUSH1 0x40 MLOAD DUP1 SWAP2 SUB SWAP1 LOG1 POP JUMP JUMPDEST PUSH2 0x4D3 PUSH2 0x177A JUMP JUMPDEST PUSH2 0x4DB PUSH2 0x17A7 JUMP JUMPDEST JUMP JUMPDEST PUSH2 0x4E5 PUSH2 0x177A JUMP JUMPDEST PUSH2 0x4ED PUSH2 0x17FC JUMP JUMPDEST PUSH1 0x0 DUP2 DUP2 MSTORE PUSH1 0x4 PUSH1 0x20 MSTORE PUSH1 0x40 SWAP1 KECCAK256 PUSH1 0x7 DUP2 ADD SLOAD PUSH1 0xFF AND PUSH2 0x51F JUMPI PUSH1 0x40 MLOAD PUSH3 0x461BCD PUSH1 0xE5 SHL DUP2 MSTORE PUSH1 0x4 ADD PUSH2 0x43D SWAP1 PUSH2 0x1BC3 JUMP JUMPDEST PUSH1 0x6 PUSH1 0x5 DUP3 ADD SLOAD PUSH1 0xFF AND PUSH1 0x6 DUP2 GT ISZERO PUSH2 0x53A JUMPI PUSH2 0x53A PUSH2 0x1929 JUMP JUMPDEST EQ PUSH2 0x587 JUMPI PUSH1 0x40 MLOAD PUSH3 0x461BCD PUSH1 0xE5 SHL DUP2 MSTORE PUSH1 0x20 PUSH1 0x4 DUP3 ADD MSTORE PUSH1 0x17 PUSH1 0x24 DUP3 ADD MSTORE PUSH32 0x457363726F77206D757374206265206469737075746564000000000000000000 PUSH1 0x44 DUP3 ADD MSTORE PUSH1 0x64 ADD PUSH2 0x43D JUMP JUMPDEST PUSH1 0x2 DUP2 ADD SLOAD PUSH1 0x5 DUP3 ADD DUP1 SLOAD PUSH1 0x4 SWAP2 SWAP1 PUSH1 0xFF NOT AND PUSH1 0x1 DUP4 MUL OR SWAP1 SSTORE POP PUSH1 0x7 DUP3 ADD DUP1 SLOAD PUSH1 0xFF NOT AND SWAP1 SSTORE DUP2 SLOAD PUSH1 0x40 MLOAD PUSH4 0xA9059CBB PUSH1 0xE0 SHL DUP2 MSTORE PUSH1 0x1 PUSH1 0x1 PUSH1 0xA0 SHL SUB SWAP2 DUP3 AND PUSH1 0x4 DUP3 ADD MSTORE PUSH1 0x24 DUP2 ADD DUP4 SWAP1 MSTORE PUSH32 0x0 SWAP1 SWAP2 AND SWAP1 PUSH4 0xA9059CBB SWAP1 PUSH1 0x44 ADD PUSH1 0x20 PUSH1 0x40 MLOAD DUP1 DUP4 SUB DUP2 PUSH1 0x0 DUP8 GAS CALL ISZERO DUP1 ISZERO PUSH2 0x621 JUMPI RETURNDATASIZE PUSH1 0x0 DUP1 RETURNDATACOPY RETURNDATASIZE PUSH1 0x0 REVERT JUMPDEST POP POP POP POP PUSH1 0x40 MLOAD RETURNDATASIZE PUSH1 0x1F NOT PUSH1 0x1F DUP3 ADD AND DUP3 ADD DUP1 PUSH1 0x40 MSTORE POP DUP2 ADD SWAP1 PUSH2 0x645 SWAP2 SWAP1 PUSH2 0x1BED JUMP JUMPDEST PUSH2 0x68A JUMPI PUSH1 0x40 MLOAD PUSH3 0x461BCD PUSH1 0xE5 SHL DUP2 MSTORE PUSH1 0x20 PUSH1 0x4 DUP3 ADD MSTORE PUSH1 0x16 PUSH1 0x24 DUP3 ADD MSTORE PUSH22 0x1499599D5B99081D1C985B9CD9995C8819985A5B1959 PUSH1 0x52 SHL PUSH1 0x44 DUP3 ADD MSTORE PUSH1 0x64 ADD PUSH2 0x43D JUMP JUMPDEST PUSH1 0x40 MLOAD DUP4 SWAP1 PUSH32 0x7B08F2D2A35D68F512D4EE819CC6C616E61AA7CD7F7B0855D95BA090D84DC436 SWAP1 PUSH1 0x0 SWAP1 LOG2 POP POP PUSH2 0x6C1 PUSH1 0x1 PUSH1 0x0 SSTORE JUMP JUMPDEST POP JUMP JUMPDEST PUSH2 0x6CC PUSH2 0x177A JUMP JUMPDEST PUSH2 0x4DB PUSH1 0x0 PUSH2 0x1826 JUMP JUMPDEST PUSH2 0x6DE PUSH2 0x17FC JUMP JUMPDEST PUSH2 0x6E6 PUSH2 0x1878 JUMP JUMPDEST PUSH1 0x0 DUP2 DUP2 MSTORE PUSH1 0x4 PUSH1 0x20 MSTORE PUSH1 0x40 SWAP1 KECCAK256 PUSH1 0x7 DUP2 ADD SLOAD PUSH1 0xFF AND PUSH2 0x718 JUMPI PUSH1 0x40 MLOAD PUSH3 0x461BCD PUSH1 0xE5 SHL DUP2 MSTORE PUSH1 0x4 ADD PUSH2 0x43D SWAP1 PUSH2 0x1BC3 JUMP JUMPDEST DUP1 SLOAD PUSH1 0x1 PUSH1 0x1 PUSH1 0xA0 SHL SUB AND CALLER EQ PUSH2 0x76A JUMPI PUSH1 0x40 MLOAD PUSH3 0x461BCD PUSH1 0xE5 SHL DUP2 MSTORE PUSH1 0x20 PUSH1 0x4 DUP3 ADD MSTORE PUSH1 0x16 PUSH1 0x24 DUP3 ADD MSTORE PUSH22 0x4F6E6C792062757965722063616E20636F6E6669726D PUSH1 0x50 SHL PUSH1 0x44 DUP3 ADD MSTORE PUSH1 0x64 ADD PUSH2 0x43D JUMP JUMPDEST PUSH1 0x2 PUSH1 0x5 DUP3 ADD SLOAD PUSH1 0xFF AND PUSH1 0x6 DUP2 GT ISZERO PUSH2 0x785 JUMPI PUSH2 0x785 PUSH2 0x1929 JUMP JUMPDEST EQ PUSH2 0x7A2 JUMPI PUSH1 0x40 MLOAD PUSH3 0x461BCD PUSH1 0xE5 SHL DUP2 MSTORE PUSH1 0x4 ADD PUSH2 0x43D SWAP1 PUSH2 0x1C0F JUMP JUMPDEST PUSH1 0x0 PUSH2 0x2710 PUSH1 0x3 SLOAD DUP4 PUSH1 0x2 ADD SLOAD PUSH2 0x7B9 SWAP2 SWAP1 PUSH2 0x1C53 JUMP JUMPDEST PUSH2 0x7C3 SWAP2 SWAP1 PUSH2 0x1C70 JUMP JUMPDEST SWAP1 POP PUSH1 0x0 DUP2 DUP4 PUSH1 0x2 ADD SLOAD PUSH2 0x7D7 SWAP2 SWAP1 PUSH2 0x1C92 JUMP JUMPDEST PUSH1 0x5 DUP5 DUP2 ADD DUP1 SLOAD PUSH1 0xFF NOT SWAP1 DUP2 AND SWAP1 SWAP3 OR SWAP1 SSTORE PUSH1 0x7 DUP6 ADD DUP1 SLOAD SWAP1 SWAP2 AND SWAP1 SSTORE PUSH1 0x1 DUP5 ADD SLOAD PUSH1 0x40 MLOAD PUSH4 0xA9059CBB PUSH1 0xE0 SHL DUP2 MSTORE PUSH1 0x1 PUSH1 0x1 PUSH1 0xA0 SHL SUB SWAP2 DUP3 AND PUSH1 0x4 DUP3 ADD MSTORE PUSH1 0x24 DUP2 ADD DUP4 SWAP1 MSTORE SWAP2 SWAP3 POP PUSH32 0x0 AND SWAP1 PUSH4 0xA9059CBB SWAP1 PUSH1 0x44 ADD PUSH1 0x20 PUSH1 0x40 MLOAD DUP1 DUP4 SUB DUP2 PUSH1 0x0 DUP8 GAS CALL ISZERO DUP1 ISZERO PUSH2 0x86B JUMPI RETURNDATASIZE PUSH1 0x0 DUP1 RETURNDATACOPY RETURNDATASIZE PUSH1 0x0 REVERT JUMPDEST POP POP POP POP PUSH1 0x40 MLOAD RETURNDATASIZE PUSH1 0x1F NOT PUSH1 0x1F DUP3 ADD AND DUP3 ADD DUP1 PUSH1 0x40 MSTORE POP DUP2 ADD SWAP1 PUSH2 0x88F SWAP2 SWAP1 PUSH2 0x1BED JUMP JUMPDEST PUSH2 0x8D7 JUMPI PUSH1 0x40 MLOAD PUSH3 0x461BCD PUSH1 0xE5 SHL DUP2 MSTORE PUSH1 0x20 PUSH1 0x4 DUP3 ADD MSTORE PUSH1 0x19 PUSH1 0x24 DUP3 ADD MSTORE PUSH25 0x151C985B9CD9995C881D1BC81CD95B1B195C8819985A5B1959 PUSH1 0x3A SHL PUSH1 0x44 DUP3 ADD MSTORE PUSH1 0x64 ADD PUSH2 0x43D JUMP JUMPDEST PUSH1 0x2 SLOAD PUSH1 0x40 MLOAD PUSH4 0xA9059CBB PUSH1 0xE0 SHL DUP2 MSTORE PUSH1 0x1 PUSH1 0x1 PUSH1 0xA0 SHL SUB SWAP2 DUP3 AND PUSH1 0x4 DUP3 ADD MSTORE PUSH1 0x24 DUP2 ADD DUP5 SWAP1 MSTORE PUSH32 0x0 SWAP1 SWAP2 AND SWAP1 PUSH4 0xA9059CBB SWAP1 PUSH1 0x44 ADD PUSH1 0x20 PUSH1 0x40 MLOAD DUP1 DUP4 SUB DUP2 PUSH1 0x0 DUP8 GAS CALL ISZERO DUP1 ISZERO PUSH2 0x94B JUMPI RETURNDATASIZE PUSH1 0x0 DUP1 RETURNDATACOPY RETURNDATASIZE PUSH1 0x0 REVERT JUMPDEST POP POP POP POP PUSH1 0x40 MLOAD RETURNDATASIZE PUSH1 0x1F NOT PUSH1 0x1F DUP3 ADD AND DUP3 ADD DUP1 PUSH1 0x40 MSTORE POP DUP2 ADD SWAP1 PUSH2 0x96F SWAP2 SWAP1 PUSH2 0x1BED JUMP JUMPDEST PUSH2 0x9B1 JUMPI PUSH1 0x40 MLOAD PUSH3 0x461BCD PUSH1 0xE5 SHL DUP2 MSTORE PUSH1 0x20 PUSH1 0x4 DUP3 ADD MSTORE PUSH1 0x13 PUSH1 0x24 DUP3 ADD MSTORE PUSH19 0x119959481D1C985B9CD9995C8819985A5B1959 PUSH1 0x6A SHL PUSH1 0x44 DUP3 ADD MSTORE PUSH1 0x64 ADD PUSH2 0x43D JUMP JUMPDEST PUSH1 0x40 MLOAD DUP5 SWAP1 PUSH32 0x996D2FEEB670AF091DC22C54AA1D2D4606FA0C1701217BDEFC494E61BF209D7C SWAP1 PUSH1 0x0 SWAP1 LOG2 PUSH1 0x40 MLOAD DUP5 SWAP1 PUSH32 0xF13B3BFA8CD084CADAB3723A031C3F1C641CE6072626163D3100C1CD14C18A28 SWAP1 PUSH1 0x0 SWAP1 LOG2 POP POP POP PUSH2 0x6C1 PUSH1 0x1 PUSH1 0x0 SSTORE JUMP JUMPDEST PUSH2 0xA1C PUSH2 0x17FC JUMP JUMPDEST PUSH2 0xA24 PUSH2 0x1878 JUMP JUMPDEST PUSH1 0x0 DUP2 DUP2 MSTORE PUSH1 0x4 PUSH1 0x20 MSTORE PUSH1 0x40 SWAP1 KECCAK256 PUSH1 0x7 DUP2 ADD SLOAD PUSH1 0xFF AND PUSH2 0xA56 JUMPI PUSH1 0x40 MLOAD PUSH3 0x461BCD PUSH1 0xE5 SHL DUP2 MSTORE PUSH1 0x4 ADD PUSH2 0x43D SWAP1 PUSH2 0x1BC3 JUMP JUMPDEST PUSH1 0x1 DUP2 ADD SLOAD PUSH1 0x1 PUSH1 0x1 PUSH1 0xA0 SHL SUB AND CALLER EQ PUSH2 0xAB2 JUMPI PUSH1 0x40 MLOAD PUSH3 0x461BCD PUSH1 0xE5 SHL DUP2 MSTORE PUSH1 0x20 PUSH1 0x4 DUP3 ADD DUP2 SWAP1 MSTORE PUSH1 0x24 DUP3 ADD MSTORE PUSH32 0x4F6E6C792073656C6C65722063616E20636F6E6669726D2064656C6976657279 PUSH1 0x44 DUP3 ADD MSTORE PUSH1 0x64 ADD PUSH2 0x43D JUMP JUMPDEST PUSH1 0x1 PUSH1 0x5 DUP3 ADD SLOAD PUSH1 0xFF AND PUSH1 0x6 DUP2 GT ISZERO PUSH2 0xACD JUMPI PUSH2 0xACD PUSH2 0x1929 JUMP JUMPDEST EQ PUSH2 0xAEA JUMPI PUSH1 0x40 MLOAD PUSH3 0x461BCD PUSH1 0xE5 SHL DUP2 MSTORE PUSH1 0x4 ADD PUSH2 0x43D SWAP1 PUSH2 0x1C0F JUMP JUMPDEST PUSH1 0x5 DUP2 ADD DUP1 SLOAD PUSH1 0xFF NOT AND PUSH1 0x2 OR SWAP1 SSTORE TIMESTAMP PUSH1 0x4 DUP3 ADD DUP2 SWAP1 SSTORE PUSH1 0x40 MLOAD SWAP1 DUP2 MSTORE DUP3 SWAP1 PUSH32 0xD5C5DE7584205B4C356C2EE4565A620B70F3AC953304D40FEE2978C42823175B SWAP1 PUSH1 0x20 ADD PUSH1 0x40 MLOAD DUP1 SWAP2 SUB SWAP1 LOG2 POP PUSH2 0x6C1 PUSH1 0x1 PUSH1 0x0 SSTORE JUMP JUMPDEST PUSH1 0x0 DUP2 DUP2 MSTORE PUSH1 0x4 PUSH1 0x20 MSTORE PUSH1 0x40 SWAP1 KECCAK256 PUSH1 0x7 DUP2 ADD SLOAD PUSH1 0xFF AND PUSH2 0xB73 JUMPI PUSH1 0x40 MLOAD PUSH3 0x461BCD PUSH1 0xE5 SHL DUP2 MSTORE PUSH1 0x4 ADD PUSH2 0x43D SWAP1 PUSH2 0x1BC3 JUMP JUMPDEST DUP1 SLOAD PUSH1 0x1 PUSH1 0x1 PUSH1 0xA0 SHL SUB AND CALLER EQ DUP1 PUSH2 0xB97 JUMPI POP PUSH1 0x1 DUP2 ADD SLOAD PUSH1 0x1 PUSH1 0x1 PUSH1 0xA0 SHL SUB AND CALLER EQ JUMPDEST PUSH2 0xBE3 JUMPI PUSH1 0x40 MLOAD PUSH3 0x461BCD PUSH1 0xE5 SHL DUP2 MSTORE PUSH1 0x20 PUSH1 0x4 DUP3 ADD DUP2 SWAP1 MSTORE PUSH1 0x24 DUP3 ADD MSTORE PUSH32 0x4F6E6C79206275796572206F722073656C6C65722063616E2064697370757465 PUSH1 0x44 DUP3 ADD MSTORE PUSH1 0x64 ADD PUSH2 0x43D JUMP JUMPDEST PUSH1 0x2 PUSH1 0x5 DUP3 ADD SLOAD PUSH1 0xFF AND PUSH1 0x6 DUP2 GT ISZERO PUSH2 0xBFE JUMPI PUSH2 0xBFE PUSH2 0x1929 JUMP JUMPDEST EQ PUSH2 0xC1B JUMPI PUSH1 0x40 MLOAD PUSH3 0x461BCD PUSH1 0xE5 SHL DUP2 MSTORE PUSH1 0x4 ADD PUSH2 0x43D SWAP1 PUSH2 0x1C0F JUMP JUMPDEST PUSH1 0x5 DUP2 ADD DUP1 SLOAD PUSH1 0xFF NOT AND PUSH1 0x6 OR SWAP1 SSTORE PUSH1 0x40 MLOAD DUP3 SWAP1 PUSH32 0x550BA3F95FA658596451573E6D789AFA3858D8A992CB121712D3DF88CFF5765C SWAP1 PUSH1 0x0 SWAP1 LOG2 POP POP JUMP JUMPDEST PUSH2 0xC61 PUSH2 0x177A JUMP JUMPDEST PUSH2 0x4DB PUSH2 0x18A3 JUMP JUMPDEST PUSH2 0xC71 PUSH2 0x177A JUMP JUMPDEST PUSH1 0x1 PUSH1 0x1 PUSH1 0xA0 SHL SUB DUP2 AND PUSH2 0xCC7 JUMPI PUSH1 0x40 MLOAD PUSH3 0x461BCD PUSH1 0xE5 SHL DUP2 MSTORE PUSH1 0x20 PUSH1 0x4 DUP3 ADD MSTORE PUSH1 0x1F PUSH1 0x24 DUP3 ADD MSTORE PUSH32 0x496E76616C696420706C6174666F726D2077616C6C6574206164647265737300 PUSH1 0x44 DUP3 ADD MSTORE PUSH1 0x64 ADD PUSH2 0x43D JUMP JUMPDEST PUSH1 0x2 DUP1 SLOAD PUSH1 0x1 PUSH1 0x1 PUSH1 0xA0 SHL SUB NOT AND PUSH1 0x1 PUSH1 0x1 PUSH1 0xA0 SHL SUB DUP4 AND SWAP1 DUP2 OR SWAP1 SWAP2 SSTORE PUSH1 0x40 MLOAD PUSH32 0x73238E3AE0A71B401B31AE67204506D074DE41BD5C084082FBA9B64B1C7FA28F SWAP1 PUSH1 0x0 SWAP1 LOG2 POP JUMP JUMPDEST PUSH2 0xD19 PUSH2 0x17FC JUMP JUMPDEST PUSH1 0x0 DUP2 DUP2 MSTORE PUSH1 0x4 PUSH1 0x20 MSTORE PUSH1 0x40 SWAP1 KECCAK256 PUSH1 0x7 DUP2 ADD SLOAD PUSH1 0xFF AND PUSH2 0xD4B JUMPI PUSH1 0x40 MLOAD PUSH3 0x461BCD PUSH1 0xE5 SHL DUP2 MSTORE PUSH1 0x4 ADD PUSH2 0x43D SWAP1 PUSH2 0x1BC3 JUMP JUMPDEST PUSH1 0x2 PUSH1 0x5 DUP3 ADD SLOAD PUSH1 0xFF AND PUSH1 0x6 DUP2 GT ISZERO PUSH2 0xD66 JUMPI PUSH2 0xD66 PUSH2 0x1929 JUMP JUMPDEST EQ PUSH2 0xDB3 JUMPI PUSH1 0x40 MLOAD PUSH3 0x461BCD PUSH1 0xE5 SHL DUP2 MSTORE PUSH1 0x20 PUSH1 0x4 DUP3 ADD DUP2 SWAP1 MSTORE PUSH1 0x24 DUP3 ADD MSTORE PUSH32 0x44656C6976657279206E6F7420636F6E6669726D65642062792073656C6C6572 PUSH1 0x44 DUP3 ADD MSTORE PUSH1 0x64 ADD PUSH2 0x43D JUMP JUMPDEST PUSH1 0x0 DUP2 PUSH1 0x4 ADD SLOAD GT PUSH2 0xE07 JUMPI PUSH1 0x40 MLOAD PUSH3 0x461BCD PUSH1 0xE5 SHL DUP2 MSTORE PUSH1 0x20 PUSH1 0x4 DUP3 ADD MSTORE PUSH1 0x1A PUSH1 0x24 DUP3 ADD MSTORE PUSH32 0x44656C69766572792074696D657374616D70206E6F7420736574000000000000 PUSH1 0x44 DUP3 ADD MSTORE PUSH1 0x64 ADD PUSH2 0x43D JUMP JUMPDEST PUSH3 0x3F480 DUP2 PUSH1 0x4 ADD SLOAD PUSH2 0xE1A SWAP2 SWAP1 PUSH2 0x1CA5 JUMP JUMPDEST TIMESTAMP LT ISZERO PUSH2 0xE69 JUMPI PUSH1 0x40 MLOAD PUSH3 0x461BCD PUSH1 0xE5 SHL DUP2 MSTORE PUSH1 0x20 PUSH1 0x4 DUP3 ADD MSTORE PUSH1 0x1A PUSH1 0x24 DUP3 ADD MSTORE PUSH32 0x4175746F2D72656C656173652064656C6179206E6F74206D6574000000000000 PUSH1 0x44 DUP3 ADD MSTORE PUSH1 0x64 ADD PUSH2 0x43D JUMP JUMPDEST PUSH1 0x0 PUSH2 0x2710 PUSH1 0x3 SLOAD DUP4 PUSH1 0x2 ADD SLOAD PUSH2 0xE80 SWAP2 SWAP1 PUSH2 0x1C53 JUMP JUMPDEST PUSH2 0xE8A SWAP2 SWAP1 PUSH2 0x1C70 JUMP JUMPDEST SWAP1 POP PUSH1 0x0 DUP2 DUP4 PUSH1 0x2 ADD SLOAD PUSH2 0xE9E SWAP2 SWAP1 PUSH2 0x1C92 JUMP JUMPDEST PUSH1 0x5 DUP5 DUP2 ADD DUP1 SLOAD PUSH1 0xFF NOT SWAP1 DUP2 AND SWAP1 SWAP3 OR SWAP1 SSTORE PUSH1 0x7 DUP6 ADD DUP1 SLOAD SWAP1 SWAP2 AND SWAP1 SSTORE PUSH1 0x1 DUP5 ADD SLOAD PUSH1 0x40 MLOAD PUSH4 0xA9059CBB PUSH1 0xE0 SHL DUP2 MSTORE PUSH1 0x1 PUSH1 0x1 PUSH1 0xA0 SHL SUB SWAP2 DUP3 AND PUSH1 0x4 DUP3 ADD MSTORE PUSH1 0x24 DUP2 ADD DUP4 SWAP1 MSTORE SWAP2 SWAP3 POP PUSH32 0x0 AND SWAP1 PUSH4 0xA9059CBB SWAP1 PUSH1 0x44 ADD PUSH1 0x20 PUSH1 0x40 MLOAD DUP1 DUP4 SUB DUP2 PUSH1 0x0 DUP8 GAS CALL ISZERO DUP1 ISZERO PUSH2 0xF32 JUMPI RETURNDATASIZE PUSH1 0x0 DUP1 RETURNDATACOPY RETURNDATASIZE PUSH1 0x0 REVERT JUMPDEST POP POP POP POP PUSH1 0x40 MLOAD RETURNDATASIZE PUSH1 0x1F NOT PUSH1 0x1F DUP3 ADD AND DUP3 ADD DUP1 PUSH1 0x40 MSTORE POP DUP2 ADD SWAP1 PUSH2 0xF56 SWAP2 SWAP1 PUSH2 0x1BED JUMP JUMPDEST PUSH2 0xF9E JUMPI PUSH1 0x40 MLOAD PUSH3 0x461BCD PUSH1 0xE5 SHL DUP2 MSTORE PUSH1 0x20 PUSH1 0x4 DUP3 ADD MSTORE PUSH1 0x19 PUSH1 0x24 DUP3 ADD MSTORE PUSH25 0x151C985B9CD9995C881D1BC81CD95B1B195C8819985A5B1959 PUSH1 0x3A SHL PUSH1 0x44 DUP3 ADD MSTORE PUSH1 0x64 ADD PUSH2 0x43D JUMP JUMPDEST PUSH1 0x2 SLOAD PUSH1 0x40 MLOAD PUSH4 0xA9059CBB PUSH1 0xE0 SHL DUP2 MSTORE PUSH1 0x1 PUSH1 0x1 PUSH1 0xA0 SHL SUB SWAP2 DUP3 AND PUSH1 0x4 DUP3 ADD MSTORE PUSH1 0x24 DUP2 ADD DUP5 SWAP1 MSTORE PUSH32 0x0 SWAP1 SWAP2 AND SWAP1 PUSH4 0xA9059CBB SWAP1 PUSH1 0x44 ADD PUSH1 0x20 PUSH1 0x40 MLOAD DUP1 DUP4 SUB DUP2 PUSH1 0x0 DUP8 GAS CALL ISZERO DUP1 ISZERO PUSH2 0x1012 JUMPI RETURNDATASIZE PUSH1 0x0 DUP1 RETURNDATACOPY RETURNDATASIZE PUSH1 0x0 REVERT JUMPDEST POP POP POP POP PUSH1 0x40 MLOAD RETURNDATASIZE PUSH1 0x1F NOT PUSH1 0x1F DUP3 ADD AND DUP3 ADD DUP1 PUSH1 0x40 MSTORE POP DUP2 ADD SWAP1 PUSH2 0x1036 SWAP2 SWAP1 PUSH2 0x1BED JUMP JUMPDEST PUSH2 0x1078 JUMPI PUSH1 0x40 MLOAD PUSH3 0x461BCD PUSH1 0xE5 SHL DUP2 MSTORE PUSH1 0x20 PUSH1 0x4 DUP3 ADD MSTORE PUSH1 0x13 PUSH1 0x24 DUP3 ADD MSTORE PUSH19 0x119959481D1C985B9CD9995C8819985A5B1959 PUSH1 0x6A SHL PUSH1 0x44 DUP3 ADD MSTORE PUSH1 0x64 ADD PUSH2 0x43D JUMP JUMPDEST PUSH1 0x5 DUP4 DUP2 ADD DUP1 SLOAD PUSH1 0xFF NOT AND PUSH1 0x1 DUP4 MUL OR SWAP1 SSTORE POP PUSH1 0x7 DUP4 ADD DUP1 SLOAD PUSH1 0xFF NOT AND SWAP1 SSTORE PUSH1 0x40 MLOAD DUP5 SWAP1 PUSH32 0x996D2FEEB670AF091DC22C54AA1D2D4606FA0C1701217BDEFC494E61BF209D7C SWAP1 PUSH1 0x0 SWAP1 LOG2 PUSH1 0x40 MLOAD DUP5 SWAP1 PUSH32 0xF13B3BFA8CD084CADAB3723A031C3F1C641CE6072626163D3100C1CD14C18A28 SWAP1 PUSH1 0x0 SWAP1 LOG2 POP POP POP PUSH2 0x6C1 PUSH1 0x1 PUSH1 0x0 SSTORE JUMP JUMPDEST PUSH1 0x0 PUSH2 0x1104 PUSH2 0x1878 JUMP JUMPDEST PUSH2 0x110C PUSH2 0x17FC JUMP JUMPDEST PUSH1 0x1 PUSH1 0x1 PUSH1 0xA0 SHL SUB DUP5 AND PUSH2 0x115B JUMPI PUSH1 0x40 MLOAD PUSH3 0x461BCD PUSH1 0xE5 SHL DUP2 MSTORE PUSH1 0x20 PUSH1 0x4 DUP3 ADD MSTORE PUSH1 0x16 PUSH1 0x24 DUP3 ADD MSTORE PUSH22 0x496E76616C69642073656C6C65722061646472657373 PUSH1 0x50 SHL PUSH1 0x44 DUP3 ADD MSTORE PUSH1 0x64 ADD PUSH2 0x43D JUMP JUMPDEST PUSH1 0x0 DUP4 GT PUSH2 0x11AB JUMPI PUSH1 0x40 MLOAD PUSH3 0x461BCD PUSH1 0xE5 SHL DUP2 MSTORE PUSH1 0x20 PUSH1 0x4 DUP3 ADD MSTORE PUSH1 0x1D PUSH1 0x24 DUP3 ADD MSTORE PUSH32 0x416D6F756E74206D7573742062652067726561746572207468616E2030000000 PUSH1 0x44 DUP3 ADD MSTORE PUSH1 0x64 ADD PUSH2 0x43D JUMP JUMPDEST PUSH1 0x40 MLOAD PUSH4 0x23B872DD PUSH1 0xE0 SHL DUP2 MSTORE CALLER PUSH1 0x4 DUP3 ADD MSTORE ADDRESS PUSH1 0x24 DUP3 ADD MSTORE PUSH1 0x44 DUP2 ADD DUP5 SWAP1 MSTORE PUSH32 0x0 PUSH1 0x1 PUSH1 0x1 PUSH1 0xA0 SHL SUB AND SWAP1 PUSH4 0x23B872DD SWAP1 PUSH1 0x64 ADD PUSH1 0x20 PUSH1 0x40 MLOAD DUP1 DUP4 SUB DUP2 PUSH1 0x0 DUP8 GAS CALL ISZERO DUP1 ISZERO PUSH2 0x121E JUMPI RETURNDATASIZE PUSH1 0x0 DUP1 RETURNDATACOPY RETURNDATASIZE PUSH1 0x0 REVERT JUMPDEST POP POP POP POP PUSH1 0x40 MLOAD RETURNDATASIZE PUSH1 0x1F NOT PUSH1 0x1F DUP3 ADD AND DUP3 ADD DUP1 PUSH1 0x40 MSTORE POP DUP2 ADD SWAP1 PUSH2 0x1242 SWAP2 SWAP1 PUSH2 0x1BED JUMP JUMPDEST PUSH2 0x1285 JUMPI PUSH1 0x40 MLOAD PUSH3 0x461BCD PUSH1 0xE5 SHL DUP2 MSTORE PUSH1 0x20 PUSH1 0x4 DUP3 ADD MSTORE PUSH1 0x14 PUSH1 0x24 DUP3 ADD MSTORE PUSH20 0x1554D110C81D1C985B9CD9995C8819985A5B1959 PUSH1 0x62 SHL PUSH1 0x44 DUP3 ADD MSTORE PUSH1 0x64 ADD PUSH2 0x43D JUMP JUMPDEST PUSH1 0x0 TIMESTAMP CALLER DUP7 DUP7 DUP7 PUSH1 0x40 MLOAD PUSH1 0x20 ADD PUSH2 0x12A0 SWAP6 SWAP5 SWAP4 SWAP3 SWAP2 SWAP1 PUSH2 0x1CB8 JUMP JUMPDEST PUSH1 0x40 DUP1 MLOAD DUP1 DUP4 SUB PUSH1 0x1F NOT ADD DUP2 MSTORE DUP3 DUP3 MSTORE DUP1 MLOAD PUSH1 0x20 SWAP2 DUP3 ADD KECCAK256 PUSH2 0x100 DUP5 ADD DUP4 MSTORE CALLER DUP5 MSTORE PUSH1 0x1 PUSH1 0x1 PUSH1 0xA0 SHL SUB DUP10 DUP2 AND DUP4 DUP7 ADD SWAP1 DUP2 MSTORE DUP6 DUP6 ADD DUP11 DUP2 MSTORE TIMESTAMP PUSH1 0x60 DUP9 ADD SWAP1 DUP2 MSTORE PUSH1 0x0 PUSH1 0x80 DUP10 ADD DUP2 DUP2 MSTORE PUSH1 0x1 PUSH1 0xA0 DUP12 ADD DUP2 DUP2 MSTORE PUSH1 0xC0 DUP13 ADD DUP16 SWAP1 MSTORE PUSH1 0xE0 DUP13 ADD DUP3 SWAP1 MSTORE DUP9 DUP5 MSTORE PUSH1 0x4 SWAP10 DUP11 SWAP1 MSTORE SWAP10 SWAP1 SWAP3 KECCAK256 DUP11 MLOAD DUP2 SLOAD SWAP1 DUP9 AND PUSH1 0x1 PUSH1 0x1 PUSH1 0xA0 SHL SUB NOT SWAP2 DUP3 AND OR DUP3 SSTORE SWAP6 MLOAD DUP2 DUP5 ADD DUP1 SLOAD SWAP2 SWAP1 SWAP9 AND SWAP7 AND SWAP6 SWAP1 SWAP6 OR SWAP1 SWAP6 SSTORE SWAP2 MLOAD PUSH1 0x2 DUP5 ADD SSTORE MLOAD PUSH1 0x3 DUP4 ADD SSTORE SWAP2 MLOAD SWAP4 DUP2 ADD SWAP4 SWAP1 SWAP4 SSTORE SWAP3 MLOAD PUSH1 0x5 DUP4 ADD DUP1 SLOAD SWAP3 SWAP7 POP SWAP3 SWAP4 SWAP1 SWAP3 SWAP2 PUSH1 0xFF NOT AND SWAP1 DUP4 PUSH1 0x6 DUP2 GT ISZERO PUSH2 0x1375 JUMPI PUSH2 0x1375 PUSH2 0x1929 JUMP JUMPDEST MUL OR SWAP1 SSTORE POP PUSH1 0xC0 DUP3 ADD MLOAD PUSH1 0x6 DUP3 ADD SWAP1 PUSH2 0x138E SWAP1 DUP3 PUSH2 0x1D5B JUMP JUMPDEST POP PUSH1 0xE0 SWAP2 SWAP1 SWAP2 ADD MLOAD PUSH1 0x7 SWAP1 SWAP2 ADD DUP1 SLOAD PUSH1 0xFF NOT AND SWAP2 ISZERO ISZERO SWAP2 SWAP1 SWAP2 OR SWAP1 SSTORE PUSH1 0x40 MLOAD PUSH1 0x1 PUSH1 0x1 PUSH1 0xA0 SHL SUB DUP7 AND SWAP1 CALLER SWAP1 DUP4 SWAP1 PUSH32 0xECFC64E6B5D00DB90B689255403357841334DFC94584137E88C526DC65CBB713 SWAP1 PUSH2 0x13EB SWAP1 DUP10 SWAP1 DUP10 SWAP1 PUSH2 0x1E1B JUMP JUMPDEST PUSH1 0x40 MLOAD DUP1 SWAP2 SUB SWAP1 LOG4 DUP1 PUSH32 0x8BC5E5162BA9D1A558B2D254F4739D54C8D7051230419652B328670BD68FC37 DUP6 PUSH1 0x40 MLOAD PUSH2 0x1425 SWAP2 DUP2 MSTORE PUSH1 0x20 ADD SWAP1 JUMP JUMPDEST PUSH1 0x40 MLOAD DUP1 SWAP2 SUB SWAP1 LOG2 SWAP1 POP PUSH2 0x1439 PUSH1 0x1 PUSH1 0x0 SSTORE JUMP JUMPDEST SWAP4 SWAP3 POP POP POP JUMP JUMPDEST PUSH1 0x0 DUP2 DUP2 MSTORE PUSH1 0x4 PUSH1 0x20 DUP2 DUP2 MSTORE PUSH1 0x40 DUP1 DUP5 KECCAK256 DUP2 MLOAD PUSH2 0x100 DUP2 ADD DUP4 MSTORE DUP2 SLOAD PUSH1 0x1 PUSH1 0x1 PUSH1 0xA0 SHL SUB SWAP1 DUP2 AND DUP3 MSTORE PUSH1 0x1 DUP4 ADD SLOAD AND SWAP4 DUP2 ADD SWAP4 SWAP1 SWAP4 MSTORE PUSH1 0x2 DUP2 ADD SLOAD SWAP2 DUP4 ADD SWAP2 SWAP1 SWAP2 MSTORE PUSH1 0x3 DUP2 ADD SLOAD PUSH1 0x60 DUP4 DUP2 ADD SWAP2 SWAP1 SWAP2 MSTORE SWAP3 DUP2 ADD SLOAD PUSH1 0x80 DUP4 ADD MSTORE PUSH1 0x5 DUP2 ADD SLOAD DUP5 SWAP4 DUP5 SWAP4 DUP5 SWAP4 DUP5 SWAP4 DUP5 SWAP3 DUP4 SWAP3 SWAP1 SWAP2 PUSH1 0xA0 DUP4 ADD SWAP1 PUSH1 0xFF AND PUSH1 0x6 DUP2 GT ISZERO PUSH2 0x14C5 JUMPI PUSH2 0x14C5 PUSH2 0x1929 JUMP JUMPDEST PUSH1 0x6 DUP2 GT ISZERO PUSH2 0x14D6 JUMPI PUSH2 0x14D6 PUSH2 0x1929 JUMP JUMPDEST DUP2 MSTORE PUSH1 0x20 ADD PUSH1 0x6 DUP3 ADD DUP1 SLOAD PUSH2 0x14EA SWAP1 PUSH2 0x1B89 JUMP JUMPDEST DUP1 PUSH1 0x1F ADD PUSH1 0x20 DUP1 SWAP2 DIV MUL PUSH1 0x20 ADD PUSH1 0x40 MLOAD SWAP1 DUP2 ADD PUSH1 0x40 MSTORE DUP1 SWAP3 SWAP2 SWAP1 DUP2 DUP2 MSTORE PUSH1 0x20 ADD DUP3 DUP1 SLOAD PUSH2 0x1516 SWAP1 PUSH2 0x1B89 JUMP JUMPDEST DUP1 ISZERO PUSH2 0x1563 JUMPI DUP1 PUSH1 0x1F LT PUSH2 0x1538 JUMPI PUSH2 0x100 DUP1 DUP4 SLOAD DIV MUL DUP4 MSTORE SWAP2 PUSH1 0x20 ADD SWAP2 PUSH2 0x1563 JUMP JUMPDEST DUP3 ADD SWAP2 SWAP1 PUSH1 0x0 MSTORE PUSH1 0x20 PUSH1 0x0 KECCAK256 SWAP1 JUMPDEST DUP2 SLOAD DUP2 MSTORE SWAP1 PUSH1 0x1 ADD SWAP1 PUSH1 0x20 ADD DUP1 DUP4 GT PUSH2 0x1546 JUMPI DUP3 SWAP1 SUB PUSH1 0x1F AND DUP3 ADD SWAP2 JUMPDEST POP POP POP SWAP2 DUP4 MSTORE POP POP PUSH1 0x7 SWAP2 SWAP1 SWAP2 ADD SLOAD PUSH1 0xFF AND ISZERO ISZERO PUSH1 0x20 SWAP2 DUP3 ADD MSTORE DUP2 MLOAD SWAP1 DUP3 ADD MLOAD PUSH1 0x40 DUP4 ADD MLOAD PUSH1 0x60 DUP5 ADD MLOAD PUSH1 0xA0 DUP6 ADD MLOAD PUSH1 0xC0 DUP7 ADD MLOAD PUSH1 0xE0 SWAP1 SWAP7 ADD MLOAD SWAP5 SWAP16 SWAP4 SWAP15 POP SWAP2 SWAP13 POP SWAP11 POP SWAP9 POP SWAP2 SWAP7 POP SWAP5 POP SWAP3 POP POP POP JUMP JUMPDEST PUSH2 0x15BC PUSH2 0x177A JUMP JUMPDEST PUSH1 0x1 PUSH1 0x1 PUSH1 0xA0 SHL SUB DUP2 AND PUSH2 0x15E6 JUMPI PUSH1 0x40 MLOAD PUSH4 0x1E4FBDF7 PUSH1 0xE0 SHL DUP2 MSTORE PUSH1 0x0 PUSH1 0x4 DUP3 ADD MSTORE PUSH1 0x24 ADD PUSH2 0x43D JUMP JUMPDEST PUSH2 0x6C1 DUP2 PUSH2 0x1826 JUMP JUMPDEST PUSH1 0x0 DUP2 DUP2 MSTORE PUSH1 0x4 PUSH1 0x20 DUP2 DUP2 MSTORE PUSH1 0x40 DUP1 DUP5 KECCAK256 DUP2 MLOAD PUSH2 0x100 DUP2 ADD DUP4 MSTORE DUP2 SLOAD PUSH1 0x1 PUSH1 0x1 PUSH1 0xA0 SHL SUB SWAP1 DUP2 AND DUP3 MSTORE PUSH1 0x1 DUP4 ADD SLOAD AND SWAP4 DUP2 ADD SWAP4 SWAP1 SWAP4 MSTORE PUSH1 0x2 DUP2 ADD SLOAD SWAP2 DUP4 ADD SWAP2 SWAP1 SWAP2 MSTORE PUSH1 0x3 DUP2 ADD SLOAD PUSH1 0x60 DUP4 ADD MSTORE SWAP2 DUP3 ADD SLOAD PUSH1 0x80 DUP3 ADD MSTORE PUSH1 0x5 DUP3 ADD SLOAD DUP4 SWAP3 SWAP1 PUSH1 0xA0 DUP4 ADD SWAP1 PUSH1 0xFF AND PUSH1 0x6 DUP2 GT ISZERO PUSH2 0x1665 JUMPI PUSH2 0x1665 PUSH2 0x1929 JUMP JUMPDEST PUSH1 0x6 DUP2 GT ISZERO PUSH2 0x1676 JUMPI PUSH2 0x1676 PUSH2 0x1929 JUMP JUMPDEST DUP2 MSTORE PUSH1 0x20 ADD PUSH1 0x6 DUP3 ADD DUP1 SLOAD PUSH2 0x168A SWAP1 PUSH2 0x1B89 JUMP JUMPDEST DUP1 PUSH1 0x1F ADD PUSH1 0x20 DUP1 SWAP2 DIV MUL PUSH1 0x20 ADD PUSH1 0x40 MLOAD SWAP1 DUP2 ADD PUSH1 0x40 MSTORE DUP1 SWAP3 SWAP2 SWAP1 DUP2 DUP2 MSTORE PUSH1 0x20 ADD DUP3 DUP1 SLOAD PUSH2 0x16B6 SWAP1 PUSH2 0x1B89 JUMP JUMPDEST DUP1 ISZERO PUSH2 0x1703 JUMPI DUP1 PUSH1 0x1F LT PUSH2 0x16D8 JUMPI PUSH2 0x100 DUP1 DUP4 SLOAD DIV MUL DUP4 MSTORE SWAP2 PUSH1 0x20 ADD SWAP2 PUSH2 0x1703 JUMP JUMPDEST DUP3 ADD SWAP2 SWAP1 PUSH1 0x0 MSTORE PUSH1 0x20 PUSH1 0x0 KECCAK256 SWAP1 JUMPDEST DUP2 SLOAD DUP2 MSTORE SWAP1 PUSH1 0x1 ADD SWAP1 PUSH1 0x20 ADD DUP1 DUP4 GT PUSH2 0x16E6 JUMPI DUP3 SWAP1 SUB PUSH1 0x1F AND DUP3 ADD SWAP2 JUMPDEST POP POP POP SWAP2 DUP4 MSTORE POP POP PUSH1 0x7 SWAP2 SWAP1 SWAP2 ADD SLOAD PUSH1 0xFF AND ISZERO ISZERO PUSH1 0x20 SWAP1 SWAP2 ADD MSTORE PUSH1 0xE0 DUP2 ADD MLOAD SWAP1 SWAP2 POP DUP1 ISZERO PUSH2 0x1746 JUMPI POP PUSH1 0x2 DUP2 PUSH1 0xA0 ADD MLOAD PUSH1 0x6 DUP2 GT ISZERO PUSH2 0x1744 JUMPI PUSH2 0x1744 PUSH2 0x1929 JUMP JUMPDEST EQ JUMPDEST DUP1 ISZERO PUSH2 0x1756 JUMPI POP PUSH1 0x0 DUP2 PUSH1 0x80 ADD MLOAD GT JUMPDEST DUP1 ISZERO PUSH2 0x1439 JUMPI POP PUSH3 0x3F480 DUP2 PUSH1 0x80 ADD MLOAD PUSH2 0x1770 SWAP2 SWAP1 PUSH2 0x1CA5 JUMP JUMPDEST TIMESTAMP LT ISZERO SWAP4 SWAP3 POP POP POP JUMP JUMPDEST PUSH1 0x1 SLOAD PUSH1 0x1 PUSH1 0x1 PUSH1 0xA0 SHL SUB AND CALLER EQ PUSH2 0x4DB JUMPI PUSH1 0x40 MLOAD PUSH4 0x118CDAA7 PUSH1 0xE0 SHL DUP2 MSTORE CALLER PUSH1 0x4 DUP3 ADD MSTORE PUSH1 0x24 ADD PUSH2 0x43D JUMP JUMPDEST PUSH2 0x17AF PUSH2 0x18E6 JUMP JUMPDEST PUSH1 0x1 DUP1 SLOAD PUSH1 0xFF PUSH1 0xA0 SHL NOT AND SWAP1 SSTORE PUSH32 0x5DB9EE0A495BF2E6FF9C91A7834C1BA4FDD244A5E8AA4E537BD38AEAE4B073AA CALLER JUMPDEST PUSH1 0x40 MLOAD PUSH1 0x1 PUSH1 0x1 PUSH1 0xA0 SHL SUB SWAP1 SWAP2 AND DUP2 MSTORE PUSH1 0x20 ADD PUSH1 0x40 MLOAD DUP1 SWAP2 SUB SWAP1 LOG1 JUMP JUMPDEST PUSH1 0x2 PUSH1 0x0 SLOAD SUB PUSH2 0x181F JUMPI PUSH1 0x40 MLOAD PUSH4 0x3EE5AEB5 PUSH1 0xE0 SHL DUP2 MSTORE PUSH1 0x4 ADD PUSH1 0x40 MLOAD DUP1 SWAP2 SUB SWAP1 REVERT JUMPDEST PUSH1 0x2 PUSH1 0x0 SSTORE JUMP JUMPDEST PUSH1 0x1 DUP1 SLOAD PUSH1 0x1 PUSH1 0x1 PUSH1 0xA0 SHL SUB DUP4 DUP2 AND PUSH1 0x1 PUSH1 0x1 PUSH1 0xA0 SHL SUB NOT DUP4 AND DUP2 OR SWAP1 SWAP4 SSTORE PUSH1 0x40 MLOAD SWAP2 AND SWAP2 SWAP1 DUP3 SWAP1 PUSH32 0x8BE0079C531659141344CD1FD0A4F28419497F9722A3DAAFE3B4186F6B6457E0 SWAP1 PUSH1 0x0 SWAP1 LOG3 POP POP JUMP JUMPDEST PUSH1 0x1 SLOAD PUSH1 0x1 PUSH1 0xA0 SHL SWAP1 DIV PUSH1 0xFF AND ISZERO PUSH2 0x4DB JUMPI PUSH1 0x40 MLOAD PUSH4 0xD93C0665 PUSH1 0xE0 SHL DUP2 MSTORE PUSH1 0x4 ADD PUSH1 0x40 MLOAD DUP1 SWAP2 SUB SWAP1 REVERT JUMPDEST PUSH2 0x18AB PUSH2 0x1878 JUMP JUMPDEST PUSH1 0x1 DUP1 SLOAD PUSH1 0xFF PUSH1 0xA0 SHL NOT AND PUSH1 0x1 PUSH1 0xA0 SHL OR SWAP1 SSTORE PUSH32 0x62E78CEA01BEE320CD4E420270B5EA74000D11B0C9F74754EBDBFC544B05A258 PUSH2 0x17DF CALLER SWAP1 JUMP JUMPDEST PUSH1 0x1 SLOAD PUSH1 0x1 PUSH1 0xA0 SHL SWAP1 DIV PUSH1 0xFF AND PUSH2 0x4DB JUMPI PUSH1 0x40 MLOAD PUSH4 0x8DFC202B PUSH1 0xE0 SHL DUP2 MSTORE PUSH1 0x4 ADD PUSH1 0x40 MLOAD DUP1 SWAP2 SUB SWAP1 REVERT JUMPDEST PUSH1 0x0 PUSH1 0x20 DUP3 DUP5 SUB SLT ISZERO PUSH2 0x1922 JUMPI PUSH1 0x0 DUP1 REVERT JUMPDEST POP CALLDATALOAD SWAP2 SWAP1 POP JUMP JUMPDEST PUSH4 0x4E487B71 PUSH1 0xE0 SHL PUSH1 0x0 MSTORE PUSH1 0x21 PUSH1 0x4 MSTORE PUSH1 0x24 PUSH1 0x0 REVERT JUMPDEST PUSH1 0x7 DUP2 LT PUSH2 0x195D JUMPI PUSH4 0x4E487B71 PUSH1 0xE0 SHL PUSH1 0x0 MSTORE PUSH1 0x21 PUSH1 0x4 MSTORE PUSH1 0x24 PUSH1 0x0 REVERT JUMPDEST SWAP1 MSTORE JUMP JUMPDEST PUSH1 0x0 JUMPDEST DUP4 DUP2 LT ISZERO PUSH2 0x197C JUMPI DUP2 DUP2 ADD MLOAD DUP4 DUP3 ADD MSTORE PUSH1 0x20 ADD PUSH2 0x1964 JUMP JUMPDEST POP POP PUSH1 0x0 SWAP2 ADD MSTORE JUMP JUMPDEST PUSH1 0x0 DUP2 MLOAD DUP1 DUP5 MSTORE PUSH2 0x199D DUP2 PUSH1 0x20 DUP7 ADD PUSH1 0x20 DUP7 ADD PUSH2 0x1961 JUMP JUMPDEST PUSH1 0x1F ADD PUSH1 0x1F NOT AND SWAP3 SWAP1 SWAP3 ADD PUSH1 0x20 ADD SWAP3 SWAP2 POP POP JUMP JUMPDEST PUSH1 0x1 PUSH1 0x1 PUSH1 0xA0 SHL SUB DUP10 DUP2 AND DUP3 MSTORE DUP9 AND PUSH1 0x20 DUP3 ADD MSTORE PUSH1 0x40 DUP2 ADD DUP8 SWAP1 MSTORE PUSH1 0x60 DUP2 ADD DUP7 SWAP1 MSTORE PUSH1 0x80 DUP2 ADD DUP6 SWAP1 MSTORE PUSH1 0x0 PUSH2 0x100 PUSH2 0x19EC PUSH1 0xA0 DUP5 ADD DUP8 PUSH2 0x193F JUMP JUMPDEST DUP1 PUSH1 0xC0 DUP5 ADD MSTORE PUSH2 0x19FE DUP2 DUP5 ADD DUP7 PUSH2 0x1985 JUMP JUMPDEST SWAP2 POP POP DUP3 ISZERO ISZERO PUSH1 0xE0 DUP4 ADD MSTORE SWAP10 SWAP9 POP POP POP POP POP POP POP POP POP JUMP JUMPDEST DUP1 CALLDATALOAD PUSH1 0x1 PUSH1 0x1 PUSH1 0xA0 SHL SUB DUP2 AND DUP2 EQ PUSH2 0x1A2D JUMPI PUSH1 0x0 DUP1 REVERT JUMPDEST SWAP2 SWAP1 POP JUMP JUMPDEST PUSH1 0x0 PUSH1 0x20 DUP3 DUP5 SUB SLT ISZERO PUSH2 0x1A44 JUMPI PUSH1 0x0 DUP1 REVERT JUMPDEST PUSH2 0x1439 DUP3 PUSH2 0x1A16 JUMP JUMPDEST PUSH4 0x4E487B71 PUSH1 0xE0 SHL PUSH1 0x0 MSTORE PUSH1 0x41 PUSH1 0x4 MSTORE PUSH1 0x24 PUSH1 0x0 REVERT JUMPDEST PUSH1 0x0 DUP1 PUSH1 0x0 PUSH1 0x60 DUP5 DUP7 SUB SLT ISZERO PUSH2 0x1A78 JUMPI PUSH1 0x0 DUP1 REVERT JUMPDEST PUSH2 0x1A81 DUP5 PUSH2 0x1A16 JUMP JUMPDEST SWAP3 POP PUSH1 0x20 DUP5 ADD CALLDATALOAD SWAP2 POP PUSH1 0x40 DUP5 ADD CALLDATALOAD PUSH8 0xFFFFFFFFFFFFFFFF DUP1 DUP3 GT ISZERO PUSH2 0x1AA5 JUMPI PUSH1 0x0 DUP1 REVERT JUMPDEST DUP2 DUP7 ADD SWAP2 POP DUP7 PUSH1 0x1F DUP4 ADD SLT PUSH2 0x1AB9 JUMPI PUSH1 0x0 DUP1 REVERT JUMPDEST DUP2 CALLDATALOAD DUP2 DUP2 GT ISZERO PUSH2 0x1ACB JUMPI PUSH2 0x1ACB PUSH2 0x1A4D JUMP JUMPDEST PUSH1 0x40 MLOAD PUSH1 0x1F DUP3 ADD PUSH1 0x1F NOT SWAP1 DUP2 AND PUSH1 0x3F ADD AND DUP2 ADD SWAP1 DUP4 DUP3 GT DUP2 DUP4 LT OR ISZERO PUSH2 0x1AF3 JUMPI PUSH2 0x1AF3 PUSH2 0x1A4D JUMP JUMPDEST DUP2 PUSH1 0x40 MSTORE DUP3 DUP2 MSTORE DUP10 PUSH1 0x20 DUP5 DUP8 ADD ADD GT ISZERO PUSH2 0x1B0C JUMPI PUSH1 0x0 DUP1 REVERT JUMPDEST DUP3 PUSH1 0x20 DUP7 ADD PUSH1 0x20 DUP4 ADD CALLDATACOPY PUSH1 0x0 PUSH1 0x20 DUP5 DUP4 ADD ADD MSTORE DUP1 SWAP6 POP POP POP POP POP POP SWAP3 POP SWAP3 POP SWAP3 JUMP JUMPDEST PUSH1 0x1 PUSH1 0x1 PUSH1 0xA0 SHL SUB DUP9 DUP2 AND DUP3 MSTORE DUP8 AND PUSH1 0x20 DUP3 ADD MSTORE PUSH1 0x40 DUP2 ADD DUP7 SWAP1 MSTORE PUSH1 0x60 DUP2 ADD DUP6 SWAP1 MSTORE PUSH1 0x0 PUSH2 0x1B5F PUSH1 0x80 DUP4 ADD DUP7 PUSH2 0x193F JUMP JUMPDEST PUSH1 0xE0 PUSH1 0xA0 DUP4 ADD MSTORE PUSH2 0x1B73 PUSH1 0xE0 DUP4 ADD DUP6 PUSH2 0x1985 JUMP JUMPDEST SWAP1 POP DUP3 ISZERO ISZERO PUSH1 0xC0 DUP4 ADD MSTORE SWAP9 SWAP8 POP POP POP POP POP POP POP POP JUMP JUMPDEST PUSH1 0x1 DUP2 DUP2 SHR SWAP1 DUP3 AND DUP1 PUSH2 0x1B9D JUMPI PUSH1 0x7F DUP3 AND SWAP2 POP JUMPDEST PUSH1 0x20 DUP3 LT DUP2 SUB PUSH2 0x1BBD JUMPI PUSH4 0x4E487B71 PUSH1 0xE0 SHL PUSH1 0x0 MSTORE PUSH1 0x22 PUSH1 0x4 MSTORE PUSH1 0x24 PUSH1 0x0 REVERT JUMPDEST POP SWAP2 SWAP1 POP JUMP JUMPDEST PUSH1 0x20 DUP1 DUP3 MSTORE PUSH1 0x10 SWAP1 DUP3 ADD MSTORE PUSH16 0x115CD8DC9BDDC81B9BDD08199BDD5B99 PUSH1 0x82 SHL PUSH1 0x40 DUP3 ADD MSTORE PUSH1 0x60 ADD SWAP1 JUMP JUMPDEST PUSH1 0x0 PUSH1 0x20 DUP3 DUP5 SUB SLT ISZERO PUSH2 0x1BFF JUMPI PUSH1 0x0 DUP1 REVERT JUMPDEST DUP2 MLOAD DUP1 ISZERO ISZERO DUP2 EQ PUSH2 0x1439 JUMPI PUSH1 0x0 DUP1 REVERT JUMPDEST PUSH1 0x20 DUP1 DUP3 MSTORE PUSH1 0x14 SWAP1 DUP3 ADD MSTORE PUSH20 0x496E76616C696420657363726F77207374617465 PUSH1 0x60 SHL PUSH1 0x40 DUP3 ADD MSTORE PUSH1 0x60 ADD SWAP1 JUMP JUMPDEST PUSH4 0x4E487B71 PUSH1 0xE0 SHL PUSH1 0x0 MSTORE PUSH1 0x11 PUSH1 0x4 MSTORE PUSH1 0x24 PUSH1 0x0 REVERT JUMPDEST DUP1 DUP3 MUL DUP2 ISZERO DUP3 DUP3 DIV DUP5 EQ OR PUSH2 0x1C6A JUMPI PUSH2 0x1C6A PUSH2 0x1C3D JUMP JUMPDEST SWAP3 SWAP2 POP POP JUMP JUMPDEST PUSH1 0x0 DUP3 PUSH2 0x1C8D JUMPI PUSH4 0x4E487B71 PUSH1 0xE0 SHL PUSH1 0x0 MSTORE PUSH1 0x12 PUSH1 0x4 MSTORE PUSH1 0x24 PUSH1 0x0 REVERT JUMPDEST POP DIV SWAP1 JUMP JUMPDEST DUP2 DUP2 SUB DUP2 DUP2 GT ISZERO PUSH2 0x1C6A JUMPI PUSH2 0x1C6A PUSH2 0x1C3D JUMP JUMPDEST DUP1 DUP3 ADD DUP1 DUP3 GT ISZERO PUSH2 0x1C6A JUMPI PUSH2 0x1C6A PUSH2 0x1C3D JUMP JUMPDEST DUP6 DUP2 MSTORE PUSH1 0x0 PUSH12 0xFFFFFFFFFFFFFFFFFFFFFFFF NOT DUP1 DUP8 PUSH1 0x60 SHL AND PUSH1 0x20 DUP5 ADD MSTORE DUP1 DUP7 PUSH1 0x60 SHL AND PUSH1 0x34 DUP5 ADD MSTORE POP DUP4 PUSH1 0x48 DUP4 ADD MSTORE DUP3 MLOAD PUSH2 0x1CFB DUP2 PUSH1 0x68 DUP6 ADD PUSH1 0x20 DUP8 ADD PUSH2 0x1961 JUMP JUMPDEST SWAP2 SWAP1 SWAP2 ADD PUSH1 0x68 ADD SWAP7 SWAP6 POP POP POP POP POP POP JUMP JUMPDEST PUSH1 0x1F DUP3 GT ISZERO PUSH2 0x1D56 JUMPI PUSH1 0x0 DUP2 DUP2 MSTORE PUSH1 0x20 DUP2 KECCAK256 PUSH1 0x1F DUP6 ADD PUSH1 0x5 SHR DUP2 ADD PUSH1 0x20 DUP7 LT ISZERO PUSH2 0x1D33 JUMPI POP DUP1 JUMPDEST PUSH1 0x1F DUP6 ADD PUSH1 0x5 SHR DUP3 ADD SWAP2 POP JUMPDEST DUP2 DUP2 LT ISZERO PUSH2 0x1D52 JUMPI DUP3 DUP2 SSTORE PUSH1 0x1 ADD PUSH2 0x1D3F JUMP JUMPDEST POP POP POP JUMPDEST POP POP POP JUMP JUMPDEST DUP2 MLOAD PUSH8 0xFFFFFFFFFFFFFFFF DUP2 GT ISZERO PUSH2 0x1D75 JUMPI PUSH2 0x1D75 PUSH2 0x1A4D JUMP JUMPDEST PUSH2 0x1D89 DUP2 PUSH2 0x1D83 DUP5 SLOAD PUSH2 0x1B89 JUMP JUMPDEST DUP5 PUSH2 0x1D0C JUMP JUMPDEST PUSH1 0x20 DUP1 PUSH1 0x1F DUP4 GT PUSH1 0x1 DUP2 EQ PUSH2 0x1DBE JUMPI PUSH1 0x0 DUP5 ISZERO PUSH2 0x1DA6 JUMPI POP DUP6 DUP4 ADD MLOAD JUMPDEST PUSH1 0x0 NOT PUSH1 0x3 DUP7 SWAP1 SHL SHR NOT AND PUSH1 0x1 DUP6 SWAP1 SHL OR DUP6 SSTORE PUSH2 0x1D52 JUMP JUMPDEST PUSH1 0x0 DUP6 DUP2 MSTORE PUSH1 0x20 DUP2 KECCAK256 PUSH1 0x1F NOT DUP7 AND SWAP2 JUMPDEST DUP3 DUP2 LT ISZERO PUSH2 0x1DED JUMPI DUP9 DUP7 ADD MLOAD DUP3 SSTORE SWAP5 DUP5 ADD SWAP5 PUSH1 0x1 SWAP1 SWAP2 ADD SWAP1 DUP5 ADD PUSH2 0x1DCE JUMP JUMPDEST POP DUP6 DUP3 LT ISZERO PUSH2 0x1E0B JUMPI DUP8 DUP6 ADD MLOAD PUSH1 0x0 NOT PUSH1 0x3 DUP9 SWAP1 SHL PUSH1 0xF8 AND SHR NOT AND DUP2 SSTORE JUMPDEST POP POP POP POP POP PUSH1 0x1 SWAP1 DUP2 SHL ADD SWAP1 SSTORE POP JUMP JUMPDEST DUP3 DUP2 MSTORE PUSH1 0x40 PUSH1 0x20 DUP3 ADD MSTORE PUSH1 0x0 PUSH2 0x1E34 PUSH1 0x40 DUP4 ADD DUP5 PUSH2 0x1985 JUMP JUMPDEST SWAP5 SWAP4 POP POP POP POP JUMP INVALID LOG2 PUSH5 0x6970667358 0x22 SLT KECCAK256 0x2E PUSH11 0xEFCA2D7EE0A304F09F3C27 0xE 0xFB 0xC4 0xD0 0xB5 CALLVALUE 0xE9 DUP9 0x2A LOG2 0xBF SWAP9 SWAP3 SWAP2 0xBD 0x26 0x21 0xB1 STOP PUSH5 0x736F6C6343 STOP ADDMOD EQ STOP CALLER "},"methodIdentifiers":{"AUTO_RELEASE_DELAY()":"09499aa6","USDC()":"89a30271","checkAndAutoRelease(bytes32)":"b55737b0","confirmDelivery(bytes32)":"74950ffd","confirmDeliveryBySeller(bytes32)":"77940c04","createEscrow(address,uint256,string)":"e334e8dd","escrowFeeBasisPoints()":"67afa362","escrows(bytes32)":"2d83549c","getEscrow(bytes32)":"f023b811","initiateDispute(bytes32)":"7b2e941e","isEligibleForAutoRelease(bytes32)":"fac6725d","owner()":"8da5cb5b","pause()":"8456cb59","paused()":"5c975abb","platformWallet()":"fa2af9da","refundBuyer(bytes32)":"5e314b32","renounceOwnership()":"715018a6","transferOwnership(address)":"f2fde38b","unpause()":"3f4ba83a","updateEscrowFee(uint256)":"3d2098d9","updatePlatformWallet(address)":"ada4ef30"}}}}}