{
  "_format": "hh-sol-artifact-1",
  "contractName": "KnowEmpireEscrow",
  "sourceName": "contracts/KnowEmpireEscrow.sol",
  "abi": [
    {
      "inputs": [
        {
          "internalType": "address",
          "name": "_usdc",
          "type": "address"
        },
        {
          "internalType": "address",
          "name": "_platformWallet",
          "type": "address"
        }
      ],
      "stateMutability": "nonpayable",
      "type": "constructor"
    },
    {
      "inputs": [],
      "name": "EnforcedPause",
      "type": "error"
    },
    {
      "inputs": [],
      "name": "ExpectedPause",
      "type": "error"
    },
    {
      "inputs": [
        {
          "internalType": "address",
          "name": "owner",
          "type": "address"
        }
      ],
      "name": "OwnableInvalidOwner",
      "type": "error"
    },
    {
      "inputs": [
        {
          "internalType": "address",
          "name": "account",
          "type": "address"
        }
      ],
      "name": "OwnableUnauthorizedAccount",
      "type": "error"
    },
    {
      "inputs": [],
      "name": "ReentrancyGuardReentrantCall",
      "type": "error"
    },
    {
      "anonymous": false,
      "inputs": [
        {
          "indexed": true,
          "internalType": "bytes32",
          "name": "escrowId",
          "type": "bytes32"
        },
        {
          "indexed": false,
          "internalType": "uint256",
          "name": "deliveredAt",
          "type": "uint256"
        }
      ],
      "name": "DeliveryConfirmedBySeller",
      "type": "event"
    },
    {
      "anonymous": false,
      "inputs": [
        {
          "indexed": true,
          "internalType": "bytes32",
          "name": "escrowId",
          "type": "bytes32"
        }
      ],
      "name": "EscrowCompleted",
      "type": "event"
    },
    {
      "anonymous": false,
      "inputs": [
        {
          "indexed": true,
          "internalType": "bytes32",
          "name": "escrowId",
          "type": "bytes32"
        }
      ],
      "name": "EscrowConfirmed",
      "type": "event"
    },
    {
      "anonymous": false,
      "inputs": [
        {
          "indexed": true,
          "internalType": "bytes32",
          "name": "escrowId",
          "type": "bytes32"
        },
        {
          "indexed": true,
          "internalType": "address",
          "name": "buyer",
          "type": "address"
        },
        {
          "indexed": true,
          "internalType": "address",
          "name": "seller",
          "type": "address"
        },
        {
          "indexed": false,
          "internalType": "uint256",
          "name": "amount",
          "type": "uint256"
        },
        {
          "indexed": false,
          "internalType": "string",
          "name": "orderId",
          "type": "string"
        }
      ],
      "name": "EscrowCreated",
      "type": "event"
    },
    {
      "anonymous": false,
      "inputs": [
        {
          "indexed": true,
          "internalType": "bytes32",
          "name": "escrowId",
          "type": "bytes32"
        }
      ],
      "name": "EscrowDisputed",
      "type": "event"
    },
    {
      "anonymous": false,
      "inputs": [
        {
          "indexed": false,
          "internalType": "uint256",
          "name": "newFeeBasisPoints",
          "type": "uint256"
        }
      ],
      "name": "EscrowFeeUpdated",
      "type": "event"
    },
    {
      "anonymous": false,
      "inputs": [
        {
          "indexed": true,
          "internalType": "bytes32",
          "name": "escrowId",
          "type": "bytes32"
        },
        {
          "indexed": false,
          "internalType": "uint256",
          "name": "amount",
          "type": "uint256"
        }
      ],
      "name": "EscrowFunded",
      "type": "event"
    },
    {
      "anonymous": false,
      "inputs": [
        {
          "indexed": true,
          "internalType": "bytes32",
          "name": "escrowId",
          "type": "bytes32"
        }
      ],
      "name": "EscrowRefunded",
      "type": "event"
    },
    {
      "anonymous": false,
      "inputs": [
        {
          "indexed": false,
          "internalType": "uint16",
          "name": "newFee",
          "type": "uint16"
        }
      ],
      "name": "FeeUpdated",
      "type": "event"
    },
    {
      "anonymous": false,
      "inputs": [
        {
          "indexed": true,
          "internalType": "address",
          "name": "previousOwner",
          "type": "address"
        },
        {
          "indexed": true,
          "internalType": "address",
          "name": "newOwner",
          "type": "address"
        }
      ],
      "name": "OwnershipTransferred",
      "type": "event"
    },
    {
      "anonymous": false,
      "inputs": [
        {
          "indexed": false,
          "internalType": "address",
          "name": "account",
          "type": "address"
        }
      ],
      "name": "Paused",
      "type": "event"
    },
    {
      "anonymous": false,
      "inputs": [
        {
          "indexed": true,
          "internalType": "address",
          "name": "newWallet",
          "type": "address"
        }
      ],
      "name": "PlatformWalletUpdated",
      "type": "event"
    },
    {
      "anonymous": false,
      "inputs": [
        {
          "indexed": false,
          "internalType": "address",
          "name": "account",
          "type": "address"
        }
      ],
      "name": "Unpaused",
      "type": "event"
    },
    {
      "inputs": [],
      "name": "AUTO_RELEASE_DELAY",
      "outputs": [
        {
          "internalType": "uint256",
          "name": "",
          "type": "uint256"
        }
      ],
      "stateMutability": "view",
      "type": "function"
    },
    {
      "inputs": [],
      "name": "USDC",
      "outputs": [
        {
          "internalType": "contract IERC20",
          "name": "",
          "type": "address"
        }
      ],
      "stateMutability": "view",
      "type": "function"
    },
    {
      "inputs": [
        {
          "internalType": "bytes32",
          "name": "escrowId",
          "type": "bytes32"
        }
      ],
      "name": "checkAndAutoRelease",
      "outputs": [],
      "stateMutability": "nonpayable",
      "type": "function"
    },
    {
      "inputs": [
        {
          "internalType": "bytes32",
          "name": "escrowId",
          "type": "bytes32"
        }
      ],
      "name": "confirmDelivery",
      "outputs": [],
      "stateMutability": "nonpayable",
      "type": "function"
    },
    {
      "inputs": [
        {
          "internalType": "bytes32",
          "name": "escrowId",
          "type": "bytes32"
        }
      ],
      "name": "confirmDeliveryBySeller",
      "outputs": [],
      "stateMutability": "nonpayable",
      "type": "function"
    },
    {
      "inputs": [
        {
          "internalType": "address",
          "name": "_seller",
          "type": "address"
        },
        {
          "internalType": "uint256",
          "name": "_amount",
          "type": "uint256"
        },
        {
          "internalType": "string",
          "name": "_orderId",
          "type": "string"
        }
      ],
      "name": "createEscrow",
      "outputs": [
        {
          "internalType": "bytes32",
          "name": "",
          "type": "bytes32"
        }
      ],
      "stateMutability": "nonpayable",
      "type": "function"
    },
    {
      "inputs": [],
      "name": "escrowFeeBasisPoints",
      "outputs": [
        {
          "internalType": "uint256",
          "name": "",
          "type": "uint256"
        }
      ],
      "stateMutability": "view",
      "type": "function"
    },
    {
      "inputs": [
        {
          "internalType": "bytes32",
          "name": "",
          "type": "bytes32"
        }
      ],
      "name": "escrows",
      "outputs": [
        {
          "internalType": "address",
          "name": "buyer",
          "type": "address"
        },
        {
          "internalType": "address",
          "name": "seller",
          "type": "address"
        },
        {
          "internalType": "uint256",
          "name": "amount",
          "type": "uint256"
        },
        {
          "internalType": "uint256",
          "name": "createdAt",
          "type": "uint256"
        },
        {
          "internalType": "uint256",
          "name": "deliveredAt",
          "type": "uint256"
        },
        {
          "internalType": "enum KnowEmpireEscrow.EscrowState",
          "name": "state",
          "type": "uint8"
        },
        {
          "internalType": "string",
          "name": "orderId",
          "type": "string"
        },
        {
          "internalType": "bool",
          "name": "isActive",
          "type": "bool"
        }
      ],
      "stateMutability": "view",
      "type": "function"
    },
    {
      "inputs": [
        {
          "internalType": "bytes32",
          "name": "escrowId",
          "type": "bytes32"
        }
      ],
      "name": "getEscrow",
      "outputs": [
        {
          "internalType": "address",
          "name": "buyer",
          "type": "address"
        },
        {
          "internalType": "address",
          "name": "seller",
          "type": "address"
        },
        {
          "internalType": "uint256",
          "name": "amount",
          "type": "uint256"
        },
        {
          "internalType": "uint256",
          "name": "createdAt",
          "type": "uint256"
        },
        {
          "internalType": "enum KnowEmpireEscrow.EscrowState",
          "name": "state",
          "type": "uint8"
        },
        {
          "internalType": "string",
          "name": "orderId",
          "type": "string"
        },
        {
          "internalType": "bool",
          "name": "isActive",
          "type": "bool"
        }
      ],
      "stateMutability": "view",
      "type": "function"
    },
    {
      "inputs": [
        {
          "internalType": "bytes32",
          "name": "escrowId",
          "type": "bytes32"
        }
      ],
      "name": "initiateDispute",
      "outputs": [],
      "stateMutability": "nonpayable",
      "type": "function"
    },
    {
      "inputs": [
        {
          "internalType": "bytes32",
          "name": "escrowId",
          "type": "bytes32"
        }
      ],
      "name": "isEligibleForAutoRelease",
      "outputs": [
        {
          "internalType": "bool",
          "name": "",
          "type": "bool"
        }
      ],
      "stateMutability": "view",
      "type": "function"
    },
    {
      "inputs": [],
      "name": "owner",
      "outputs": [
        {
          "internalType": "address",
          "name": "",
          "type": "address"
        }
      ],
      "stateMutability": "view",
      "type": "function"
    },
    {
      "inputs": [],
      "name": "pause",
      "outputs": [],
      "stateMutability": "nonpayable",
      "type": "function"
    },
    {
      "inputs": [],
      "name": "paused",
      "outputs": [
        {
          "internalType": "bool",
          "name": "",
          "type": "bool"
        }
      ],
      "stateMutability": "view",
      "type": "function"
    },
    {
      "inputs": [],
      "name": "platformWallet",
      "outputs": [
        {
          "internalType": "address",
          "name": "",
          "type": "address"
        }
      ],
      "stateMutability": "view",
      "type": "function"
    },
    {
      "inputs": [
        {
          "internalType": "bytes32",
          "name": "escrowId",
          "type": "bytes32"
        }
      ],
      "name": "refundBuyer",
      "outputs": [],
      "stateMutability": "nonpayable",
      "type": "function"
    },
    {
      "inputs": [],
      "name": "renounceOwnership",
      "outputs": [],
      "stateMutability": "nonpayable",
      "type": "function"
    },
    {
      "inputs": [
        {
          "internalType": "address",
          "name": "newOwner",
          "type": "address"
        }
      ],
      "name": "transferOwnership",
      "outputs": [],
      "stateMutability": "nonpayable",
      "type": "function"
    },
    {
      "inputs": [],
      "name": "unpause",
      "outputs": [],
      "stateMutability": "nonpayable",
      "type": "function"
    },
    {
      "inputs": [
        {
          "internalType": "uint256",
          "name": "_newFeeBasisPoints",
          "type": "uint256"
        }
      ],
      "name": "updateEscrowFee",
      "outputs": [],
      "stateMutability": "nonpayable",
      "type": "function"
    },
    {
      "inputs": [
        {
          "internalType": "address",
          "name": "_newWallet",
          "type": "address"
        }
      ],
      "name": "updatePlatformWallet",
      "outputs": [],
      "stateMutability": "nonpayable",
      "type": "function"
    }
  ],
  "bytecode": "0x60a06040526101f46003553480156200001757600080fd5b50604051620020b8380380620020b88339810160408190526200003a91620001c8565b600160005533806200006757604051631e4fbdf760e01b8152600060048201526024015b60405180910390fd5b620000728162000159565b506001805460ff60a01b191690556001600160a01b038216620000d85760405162461bcd60e51b815260206004820152601460248201527f496e76616c69642055534443206164647265737300000000000000000000000060448201526064016200005e565b6001600160a01b038116620001305760405162461bcd60e51b815260206004820152601f60248201527f496e76616c696420706c6174666f726d2077616c6c657420616464726573730060448201526064016200005e565b6001600160a01b03918216608052600280546001600160a01b0319169190921617905562000200565b600180546001600160a01b038381166001600160a01b0319831681179093556040519116919082907f8be0079c531659141344cd1fd0a4f28419497f9722a3daafe3b4186f6b6457e090600090a35050565b80516001600160a01b0381168114620001c357600080fd5b919050565b60008060408385031215620001dc57600080fd5b620001e783620001ab565b9150620001f760208401620001ab565b90509250929050565b608051611e726200024660003960008181610225015281816105d6015281816108220152818161090001528181610ee901528181610fc701526111cd0152611e726000f3fe608060405234801561001057600080fd5b50600436106101375760003560e01c80637b2e941e116100b8578063b55737b01161007c578063b55737b014610283578063e334e8dd14610296578063f023b811146102a9578063f2fde38b146102cf578063fa2af9da146102e2578063fac6725d146102f557600080fd5b80637b2e941e146102055780638456cb591461021857806389a30271146102205780638da5cb5b1461025f578063ada4ef301461027057600080fd5b80635e314b32116100ff5780635e314b32146101bb57806367afa362146101ce578063715018a6146101d757806374950ffd146101df57806377940c04146101f257600080fd5b806309499aa61461013c5780632d83549c146101595780633d2098d9146101805780633f4ba83a146101955780635c975abb1461019d575b600080fd5b6101466203f48081565b6040519081526020015b60405180910390f35b61016c610167366004611910565b610308565b6040516101509897969594939291906119b1565b61019361018e366004611910565b6103e9565b005b6101936104cb565b600154600160a01b900460ff165b6040519015158152602001610150565b6101936101c9366004611910565b6104dd565b61014660035481565b6101936106c4565b6101936101ed366004611910565b6106d6565b610193610200366004611910565b610a14565b610193610213366004611910565b610b41565b610193610c59565b6102477f000000000000000000000000000000000000000000000000000000000000000081565b6040516001600160a01b039091168152602001610150565b6001546001600160a01b0316610247565b61019361027e366004611a32565b610c69565b610193610291366004611910565b610d11565b6101466102a4366004611a63565b6110fa565b6102bc6102b7366004611910565b611440565b6040516101509796959493929190611b2e565b6101936102dd366004611a32565b6115b4565b600254610247906001600160a01b031681565b6101ab610303366004611910565b6115ef565b600460208190526000918252604090912080546001820154600283015460038401549484015460058501546006860180546001600160a01b039687169895909616969395929360ff9092169261035d90611b89565b80601f016020809104026020016040519081016040528092919081815260200182805461038990611b89565b80156103d65780601f106103ab576101008083540402835291602001916103d6565b820191906000526020600020905b8154815290600101906020018083116103b957829003601f168201915b5050506007909301549192505060ff1688565b6103f161177a565b600081116104465760405162461bcd60e51b815260206004820152601a60248201527f466565206d7573742062652067726561746572207468616e203000000000000060448201526064015b60405180910390fd5b6103e88111156104905760405162461bcd60e51b81526020600482015260156024820152744665652063616e6e6f74206578636565642031302560581b604482015260640161043d565b60038190556040518181527fd00d28c258e482c27ef6378915c157978b6d44943a89c62c8b4eec350e4e27099060200160405180910390a150565b6104d361177a565b6104db6117a7565b565b6104e561177a565b6104ed6117fc565b6000818152600460205260409020600781015460ff1661051f5760405162461bcd60e51b815260040161043d90611bc3565b6006600582015460ff16600681111561053a5761053a611929565b146105875760405162461bcd60e51b815260206004820152601760248201527f457363726f77206d757374206265206469737075746564000000000000000000604482015260640161043d565b60028101546005820180546004919060ff1916600183021790555060078201805460ff19169055815460405163a9059cbb60e01b81526001600160a01b039182166004820152602481018390527f00000000000000000000000000000000000000000000000000000000000000009091169063a9059cbb906044016020604051808303816000875af1158015610621573d6000803e3d6000fd5b505050506040513d601f19601f820116820180604052508101906106459190611bed565b61068a5760405162461bcd60e51b81526020600482015260166024820152751499599d5b99081d1c985b9cd9995c8819985a5b195960521b604482015260640161043d565b60405183907f7b08f2d2a35d68f512d4ee819cc6c616e61aa7cd7f7b0855d95ba090d84dc43690600090a250506106c16001600055565b50565b6106cc61177a565b6104db6000611826565b6106de6117fc565b6106e6611878565b6000818152600460205260409020600781015460ff166107185760405162461bcd60e51b815260040161043d90611bc3565b80546001600160a01b0316331461076a5760405162461bcd60e51b81526020600482015260166024820152754f6e6c792062757965722063616e20636f6e6669726d60501b604482015260640161043d565b6002600582015460ff16600681111561078557610785611929565b146107a25760405162461bcd60e51b815260040161043d90611c0f565b600061271060035483600201546107b99190611c53565b6107c39190611c70565b905060008183600201546107d79190611c92565b6005848101805460ff1990811690921790556007850180549091169055600184015460405163a9059cbb60e01b81526001600160a01b039182166004820152602481018390529192507f0000000000000000000000000000000000000000000000000000000000000000169063a9059cbb906044016020604051808303816000875af115801561086b573d6000803e3d6000fd5b505050506040513d601f19601f8201168201806040525081019061088f9190611bed565b6108d75760405162461bcd60e51b8152602060048201526019602482015278151c985b9cd9995c881d1bc81cd95b1b195c8819985a5b1959603a1b604482015260640161043d565b60025460405163a9059cbb60e01b81526001600160a01b039182166004820152602481018490527f00000000000000000000000000000000000000000000000000000000000000009091169063a9059cbb906044016020604051808303816000875af115801561094b573d6000803e3d6000fd5b505050506040513d601f19601f8201168201806040525081019061096f9190611bed565b6109b15760405162461bcd60e51b8152602060048201526013602482015272119959481d1c985b9cd9995c8819985a5b1959606a1b604482015260640161043d565b60405184907f996d2feeb670af091dc22c54aa1d2d4606fa0c1701217bdefc494e61bf209d7c90600090a260405184907ff13b3bfa8cd084cadab3723a031c3f1c641ce6072626163d3100c1cd14c18a2890600090a25050506106c16001600055565b610a1c6117fc565b610a24611878565b6000818152600460205260409020600781015460ff16610a565760405162461bcd60e51b815260040161043d90611bc3565b60018101546001600160a01b03163314610ab25760405162461bcd60e51b815260206004820181905260248201527f4f6e6c792073656c6c65722063616e20636f6e6669726d2064656c6976657279604482015260640161043d565b6001600582015460ff166006811115610acd57610acd611929565b14610aea5760405162461bcd60e51b815260040161043d90611c0f565b60058101805460ff19166002179055426004820181905560405190815282907fd5c5de7584205b4c356c2ee4565a620b70f3ac953304d40fee2978c42823175b9060200160405180910390a2506106c16001600055565b6000818152600460205260409020600781015460ff16610b735760405162461bcd60e51b815260040161043d90611bc3565b80546001600160a01b0316331480610b97575060018101546001600160a01b031633145b610be35760405162461bcd60e51b815260206004820181905260248201527f4f6e6c79206275796572206f722073656c6c65722063616e2064697370757465604482015260640161043d565b6002600582015460ff166006811115610bfe57610bfe611929565b14610c1b5760405162461bcd60e51b815260040161043d90611c0f565b60058101805460ff1916600617905560405182907f550ba3f95fa658596451573e6d789afa3858d8a992cb121712d3df88cff5765c90600090a25050565b610c6161177a565b6104db6118a3565b610c7161177a565b6001600160a01b038116610cc75760405162461bcd60e51b815260206004820152601f60248201527f496e76616c696420706c6174666f726d2077616c6c6574206164647265737300604482015260640161043d565b600280546001600160a01b0319166001600160a01b0383169081179091556040517f73238e3ae0a71b401b31ae67204506d074de41bd5c084082fba9b64b1c7fa28f90600090a250565b610d196117fc565b6000818152600460205260409020600781015460ff16610d4b5760405162461bcd60e51b815260040161043d90611bc3565b6002600582015460ff166006811115610d6657610d66611929565b14610db35760405162461bcd60e51b815260206004820181905260248201527f44656c6976657279206e6f7420636f6e6669726d65642062792073656c6c6572604482015260640161043d565b6000816004015411610e075760405162461bcd60e51b815260206004820152601a60248201527f44656c69766572792074696d657374616d70206e6f7420736574000000000000604482015260640161043d565b6203f4808160040154610e1a9190611ca5565b421015610e695760405162461bcd60e51b815260206004820152601a60248201527f4175746f2d72656c656173652064656c6179206e6f74206d6574000000000000604482015260640161043d565b60006127106003548360020154610e809190611c53565b610e8a9190611c70565b90506000818360020154610e9e9190611c92565b6005848101805460ff1990811690921790556007850180549091169055600184015460405163a9059cbb60e01b81526001600160a01b039182166004820152602481018390529192507f0000000000000000000000000000000000000000000000000000000000000000169063a9059cbb906044016020604051808303816000875af1158015610f32573d6000803e3d6000fd5b505050506040513d601f19601f82011682018060405250810190610f569190611bed565b610f9e5760405162461bcd60e51b8152602060048201526019602482015278151c985b9cd9995c881d1bc81cd95b1b195c8819985a5b1959603a1b604482015260640161043d565b60025460405163a9059cbb60e01b81526001600160a01b039182166004820152602481018490527f00000000000000000000000000000000000000000000000000000000000000009091169063a9059cbb906044016020604051808303816000875af1158015611012573d6000803e3d6000fd5b505050506040513d601f19601f820116820180604052508101906110369190611bed565b6110785760405162461bcd60e51b8152602060048201526013602482015272119959481d1c985b9cd9995c8819985a5b1959606a1b604482015260640161043d565b6005838101805460ff1916600183021790555060078301805460ff1916905560405184907f996d2feeb670af091dc22c54aa1d2d4606fa0c1701217bdefc494e61bf209d7c90600090a260405184907ff13b3bfa8cd084cadab3723a031c3f1c641ce6072626163d3100c1cd14c18a2890600090a25050506106c16001600055565b6000611104611878565b61110c6117fc565b6001600160a01b03841661115b5760405162461bcd60e51b8152602060048201526016602482015275496e76616c69642073656c6c6572206164647265737360501b604482015260640161043d565b600083116111ab5760405162461bcd60e51b815260206004820152601d60248201527f416d6f756e74206d7573742062652067726561746572207468616e2030000000604482015260640161043d565b6040516323b872dd60e01b8152336004820152306024820152604481018490527f00000000000000000000000000000000000000000000000000000000000000006001600160a01b0316906323b872dd906064016020604051808303816000875af115801561121e573d6000803e3d6000fd5b505050506040513d601f19601f820116820180604052508101906112429190611bed565b6112855760405162461bcd60e51b81526020600482015260146024820152731554d110c81d1c985b9cd9995c8819985a5b195960621b604482015260640161043d565b600042338686866040516020016112a0959493929190611cb8565b60408051808303601f190181528282528051602091820120610100840183523384526001600160a01b038981168386019081528585018a81524260608801908152600060808901818152600160a08b0181815260c08c018f905260e08c018290528884526004998a9052999092208a5181549088166001600160a01b03199182161782559551818401805491909816961695909517909555915160028401555160038301559151938101939093559251600583018054929650929390929160ff19169083600681111561137557611375611929565b021790555060c0820151600682019061138e9082611d5b565b5060e091909101516007909101805460ff19169115159190911790556040516001600160a01b03861690339083907fecfc64e6b5d00db90b689255403357841334dfc94584137e88c526dc65cbb713906113eb9089908990611e1b565b60405180910390a4807f08bc5e5162ba9d1a558b2d254f4739d54c8d7051230419652b328670bd68fc378560405161142591815260200190565b60405180910390a290506114396001600055565b9392505050565b600081815260046020818152604080842081516101008101835281546001600160a01b0390811682526001830154169381019390935260028101549183019190915260038101546060838101919091529281015460808301526005810154849384938493849384928392909160a083019060ff1660068111156114c5576114c5611929565b60068111156114d6576114d6611929565b81526020016006820180546114ea90611b89565b80601f016020809104026020016040519081016040528092919081815260200182805461151690611b89565b80156115635780601f1061153857610100808354040283529160200191611563565b820191906000526020600020905b81548152906001019060200180831161154657829003601f168201915b50505091835250506007919091015460ff1615156020918201528151908201516040830151606084015160a085015160c086015160e090960151949f939e50919c509a509850919650945092505050565b6115bc61177a565b6001600160a01b0381166115e657604051631e4fbdf760e01b81526000600482015260240161043d565b6106c181611826565b600081815260046020818152604080842081516101008101835281546001600160a01b0390811682526001830154169381019390935260028101549183019190915260038101546060830152918201546080820152600582015483929060a083019060ff16600681111561166557611665611929565b600681111561167657611676611929565b815260200160068201805461168a90611b89565b80601f01602080910402602001604051908101604052809291908181526020018280546116b690611b89565b80156117035780601f106116d857610100808354040283529160200191611703565b820191906000526020600020905b8154815290600101906020018083116116e657829003601f168201915b50505091835250506007919091015460ff16151560209091015260e08101519091508015611746575060028160a00151600681111561174457611744611929565b145b8015611756575060008160800151115b801561143957506203f48081608001516117709190611ca5565b4210159392505050565b6001546001600160a01b031633146104db5760405163118cdaa760e01b815233600482015260240161043d565b6117af6118e6565b6001805460ff60a01b191690557f5db9ee0a495bf2e6ff9c91a7834c1ba4fdd244a5e8aa4e537bd38aeae4b073aa335b6040516001600160a01b03909116815260200160405180910390a1565b60026000540361181f57604051633ee5aeb560e01b815260040160405180910390fd5b6002600055565b600180546001600160a01b038381166001600160a01b0319831681179093556040519116919082907f8be0079c531659141344cd1fd0a4f28419497f9722a3daafe3b4186f6b6457e090600090a35050565b600154600160a01b900460ff16156104db5760405163d93c066560e01b815260040160405180910390fd5b6118ab611878565b6001805460ff60a01b1916600160a01b1790557f62e78cea01bee320cd4e420270b5ea74000d11b0c9f74754ebdbfc544b05a2586117df3390565b600154600160a01b900460ff166104db57604051638dfc202b60e01b815260040160405180910390fd5b60006020828403121561192257600080fd5b5035919050565b634e487b7160e01b600052602160045260246000fd5b6007811061195d57634e487b7160e01b600052602160045260246000fd5b9052565b60005b8381101561197c578181015183820152602001611964565b50506000910152565b6000815180845261199d816020860160208601611961565b601f01601f19169290920160200192915050565b6001600160a01b0389811682528816602082015260408101879052606081018690526080810185905260006101006119ec60a084018761193f565b8060c08401526119fe81840186611985565b91505082151560e08301529998505050505050505050565b80356001600160a01b0381168114611a2d57600080fd5b919050565b600060208284031215611a4457600080fd5b61143982611a16565b634e487b7160e01b600052604160045260246000fd5b600080600060608486031215611a7857600080fd5b611a8184611a16565b925060208401359150604084013567ffffffffffffffff80821115611aa557600080fd5b818601915086601f830112611ab957600080fd5b813581811115611acb57611acb611a4d565b604051601f8201601f19908116603f01168101908382118183101715611af357611af3611a4d565b81604052828152896020848701011115611b0c57600080fd5b8260208601602083013760006020848301015280955050505050509250925092565b6001600160a01b0388811682528716602082015260408101869052606081018590526000611b5f608083018661193f565b60e060a0830152611b7360e0830185611985565b905082151560c083015298975050505050505050565b600181811c90821680611b9d57607f821691505b602082108103611bbd57634e487b7160e01b600052602260045260246000fd5b50919050565b60208082526010908201526f115cd8dc9bddc81b9bdd08199bdd5b9960821b604082015260600190565b600060208284031215611bff57600080fd5b8151801515811461143957600080fd5b602080825260149082015273496e76616c696420657363726f7720737461746560601b604082015260600190565b634e487b7160e01b600052601160045260246000fd5b8082028115828204841417611c6a57611c6a611c3d565b92915050565b600082611c8d57634e487b7160e01b600052601260045260246000fd5b500490565b81810381811115611c6a57611c6a611c3d565b80820180821115611c6a57611c6a611c3d565b85815260006bffffffffffffffffffffffff19808760601b166020840152808660601b166034840152508360488301528251611cfb816068850160208701611961565b919091016068019695505050505050565b601f821115611d5657600081815260208120601f850160051c81016020861015611d335750805b601f850160051c820191505b81811015611d5257828155600101611d3f565b5050505b505050565b815167ffffffffffffffff811115611d7557611d75611a4d565b611d8981611d838454611b89565b84611d0c565b602080601f831160018114611dbe5760008415611da65750858301515b600019600386901b1c1916600185901b178555611d52565b600085815260208120601f198616915b82811015611ded57888601518255948401946001909101908401611dce565b5085821015611e0b5787850151600019600388901b60f8161c191681555b5050505050600190811b01905550565b828152604060208201526000611e346040830184611985565b94935050505056fea26469706673582212202e6aefca2d7ee0a304f09f3c270efbc4d0b534e9882aa2bf989291bd2621b10064736f6c63430008140033",
  "linkReferences": {},
  "deployedLinkReferences": {}
}