{
  "_format": "hh-sol-artifact-1",
  "contractName": "KnowEmpireEscrow",
  "sourceName": "contracts/KnowEmpireEscrow.sol",
  "abi": [
    {
      "inputs": [
        {
          "internalType": "address",
          "name": "_usdc",
          "type": "address"
        },
        {
          "internalType": "address",
          "name": "_platformWallet",
          "type": "address"
        }
      ],
      "stateMutability": "nonpayable",
      "type": "constructor"
    },
    {
      "inputs": [],
      "name": "EnforcedPause",
      "type": "error"
    },
    {
      "inputs": [],
      "name": "ExpectedPause",
      "type": "error"
    },
    {
      "inputs": [
        {
          "internalType": "address",
          "name": "owner",
          "type": "address"
        }
      ],
      "name": "OwnableInvalidOwner",
      "type": "error"
    },
    {
      "inputs": [
        {
          "internalType": "address",
          "name": "account",
          "type": "address"
        }
      ],
      "name": "OwnableUnauthorizedAccount",
      "type": "error"
    },
    {
      "inputs": [],
      "name": "ReentrancyGuardReentrantCall",
      "type": "error"
    },
    {
      "anonymous": false,
      "inputs": [
        {
          "indexed": true,
          "internalType": "bytes32",
          "name": "escrowId",
          "type": "bytes32"
        }
      ],
      "name": "EscrowCompleted",
      "type": "event"
    },
    {
      "anonymous": false,
      "inputs": [
        {
          "indexed": true,
          "internalType": "bytes32",
          "name": "escrowId",
          "type": "bytes32"
        }
      ],
      "name": "EscrowConfirmed",
      "type": "event"
    },
    {
      "anonymous": false,
      "inputs": [
        {
          "indexed": true,
          "internalType": "bytes32",
          "name": "escrowId",
          "type": "bytes32"
        },
        {
          "indexed": true,
          "internalType": "address",
          "name": "buyer",
          "type": "address"
        },
        {
          "indexed": true,
          "internalType": "address",
          "name": "seller",
          "type": "address"
        },
        {
          "indexed": false,
          "internalType": "uint256",
          "name": "amount",
          "type": "uint256"
        },
        {
          "indexed": false,
          "internalType": "string",
          "name": "orderId",
          "type": "string"
        }
      ],
      "name": "EscrowCreated",
      "type": "event"
    },
    {
      "anonymous": false,
      "inputs": [
        {
          "indexed": true,
          "internalType": "bytes32",
          "name": "escrowId",
          "type": "bytes32"
        }
      ],
      "name": "EscrowDisputed",
      "type": "event"
    },
    {
      "anonymous": false,
      "inputs": [
        {
          "indexed": false,
          "internalType": "uint256",
          "name": "newFeeBasisPoints",
          "type": "uint256"
        }
      ],
      "name": "EscrowFeeUpdated",
      "type": "event"
    },
    {
      "anonymous": false,
      "inputs": [
        {
          "indexed": true,
          "internalType": "bytes32",
          "name": "escrowId",
          "type": "bytes32"
        },
        {
          "indexed": false,
          "internalType": "uint256",
          "name": "amount",
          "type": "uint256"
        }
      ],
      "name": "EscrowFunded",
      "type": "event"
    },
    {
      "anonymous": false,
      "inputs": [
        {
          "indexed": true,
          "internalType": "bytes32",
          "name": "escrowId",
          "type": "bytes32"
        }
      ],
      "name": "EscrowRefunded",
      "type": "event"
    },
    {
      "anonymous": false,
      "inputs": [
        {
          "indexed": false,
          "internalType": "uint16",
          "name": "newFee",
          "type": "uint16"
        }
      ],
      "name": "FeeUpdated",
      "type": "event"
    },
    {
      "anonymous": false,
      "inputs": [
        {
          "indexed": true,
          "internalType": "address",
          "name": "previousOwner",
          "type": "address"
        },
        {
          "indexed": true,
          "internalType": "address",
          "name": "newOwner",
          "type": "address"
        }
      ],
      "name": "OwnershipTransferred",
      "type": "event"
    },
    {
      "anonymous": false,
      "inputs": [
        {
          "indexed": false,
          "internalType": "address",
          "name": "account",
          "type": "address"
        }
      ],
      "name": "Paused",
      "type": "event"
    },
    {
      "anonymous": false,
      "inputs": [
        {
          "indexed": true,
          "internalType": "address",
          "name": "newWallet",
          "type": "address"
        }
      ],
      "name": "PlatformWalletUpdated",
      "type": "event"
    },
    {
      "anonymous": false,
      "inputs": [
        {
          "indexed": false,
          "internalType": "address",
          "name": "account",
          "type": "address"
        }
      ],
      "name": "Unpaused",
      "type": "event"
    },
    {
      "inputs": [],
      "name": "AUTO_RELEASE_DELAY",
      "outputs": [
        {
          "internalType": "uint256",
          "name": "",
          "type": "uint256"
        }
      ],
      "stateMutability": "view",
      "type": "function"
    },
    {
      "inputs": [],
      "name": "USDC",
      "outputs": [
        {
          "internalType": "contract IERC20",
          "name": "",
          "type": "address"
        }
      ],
      "stateMutability": "view",
      "type": "function"
    },
    {
      "inputs": [
        {
          "internalType": "bytes32",
          "name": "escrowId",
          "type": "bytes32"
        }
      ],
      "name": "checkAndAutoRelease",
      "outputs": [],
      "stateMutability": "nonpayable",
      "type": "function"
    },
    {
      "inputs": [
        {
          "internalType": "bytes32",
          "name": "escrowId",
          "type": "bytes32"
        }
      ],
      "name": "confirmDelivery",
      "outputs": [],
      "stateMutability": "nonpayable",
      "type": "function"
    },
    {
      "inputs": [
        {
          "internalType": "address",
          "name": "_seller",
          "type": "address"
        },
        {
          "internalType": "uint256",
          "name": "_amount",
          "type": "uint256"
        },
        {
          "internalType": "string",
          "name": "_orderId",
          "type": "string"
        }
      ],
      "name": "createEscrow",
      "outputs": [
        {
          "internalType": "bytes32",
          "name": "",
          "type": "bytes32"
        }
      ],
      "stateMutability": "nonpayable",
      "type": "function"
    },
    {
      "inputs": [],
      "name": "escrowFeeBasisPoints",
      "outputs": [
        {
          "internalType": "uint256",
          "name": "",
          "type": "uint256"
        }
      ],
      "stateMutability": "view",
      "type": "function"
    },
    {
      "inputs": [
        {
          "internalType": "bytes32",
          "name": "",
          "type": "bytes32"
        }
      ],
      "name": "escrows",
      "outputs": [
        {
          "internalType": "address",
          "name": "buyer",
          "type": "address"
        },
        {
          "internalType": "address",
          "name": "seller",
          "type": "address"
        },
        {
          "internalType": "uint256",
          "name": "amount",
          "type": "uint256"
        },
        {
          "internalType": "uint256",
          "name": "createdAt",
          "type": "uint256"
        },
        {
          "internalType": "enum KnowEmpireEscrow.EscrowState",
          "name": "state",
          "type": "uint8"
        },
        {
          "internalType": "string",
          "name": "orderId",
          "type": "string"
        },
        {
          "internalType": "bool",
          "name": "isActive",
          "type": "bool"
        }
      ],
      "stateMutability": "view",
      "type": "function"
    },
    {
      "inputs": [
        {
          "internalType": "bytes32",
          "name": "escrowId",
          "type": "bytes32"
        }
      ],
      "name": "getEscrow",
      "outputs": [
        {
          "internalType": "address",
          "name": "buyer",
          "type": "address"
        },
        {
          "internalType": "address",
          "name": "seller",
          "type": "address"
        },
        {
          "internalType": "uint256",
          "name": "amount",
          "type": "uint256"
        },
        {
          "internalType": "uint256",
          "name": "createdAt",
          "type": "uint256"
        },
        {
          "internalType": "enum KnowEmpireEscrow.EscrowState",
          "name": "state",
          "type": "uint8"
        },
        {
          "internalType": "string",
          "name": "orderId",
          "type": "string"
        },
        {
          "internalType": "bool",
          "name": "isActive",
          "type": "bool"
        }
      ],
      "stateMutability": "view",
      "type": "function"
    },
    {
      "inputs": [
        {
          "internalType": "bytes32",
          "name": "escrowId",
          "type": "bytes32"
        }
      ],
      "name": "initiateDispute",
      "outputs": [],
      "stateMutability": "nonpayable",
      "type": "function"
    },
    {
      "inputs": [
        {
          "internalType": "bytes32",
          "name": "escrowId",
          "type": "bytes32"
        }
      ],
      "name": "isEligibleForAutoRelease",
      "outputs": [
        {
          "internalType": "bool",
          "name": "",
          "type": "bool"
        }
      ],
      "stateMutability": "view",
      "type": "function"
    },
    {
      "inputs": [],
      "name": "owner",
      "outputs": [
        {
          "internalType": "address",
          "name": "",
          "type": "address"
        }
      ],
      "stateMutability": "view",
      "type": "function"
    },
    {
      "inputs": [],
      "name": "pause",
      "outputs": [],
      "stateMutability": "nonpayable",
      "type": "function"
    },
    {
      "inputs": [],
      "name": "paused",
      "outputs": [
        {
          "internalType": "bool",
          "name": "",
          "type": "bool"
        }
      ],
      "stateMutability": "view",
      "type": "function"
    },
    {
      "inputs": [],
      "name": "platformWallet",
      "outputs": [
        {
          "internalType": "address",
          "name": "",
          "type": "address"
        }
      ],
      "stateMutability": "view",
      "type": "function"
    },
    {
      "inputs": [
        {
          "internalType": "bytes32",
          "name": "escrowId",
          "type": "bytes32"
        }
      ],
      "name": "refundBuyer",
      "outputs": [],
      "stateMutability": "nonpayable",
      "type": "function"
    },
    {
      "inputs": [],
      "name": "renounceOwnership",
      "outputs": [],
      "stateMutability": "nonpayable",
      "type": "function"
    },
    {
      "inputs": [
        {
          "internalType": "address",
          "name": "newOwner",
          "type": "address"
        }
      ],
      "name": "transferOwnership",
      "outputs": [],
      "stateMutability": "nonpayable",
      "type": "function"
    },
    {
      "inputs": [],
      "name": "unpause",
      "outputs": [],
      "stateMutability": "nonpayable",
      "type": "function"
    },
    {
      "inputs": [
        {
          "internalType": "uint256",
          "name": "_newFeeBasisPoints",
          "type": "uint256"
        }
      ],
      "name": "updateEscrowFee",
      "outputs": [],
      "stateMutability": "nonpayable",
      "type": "function"
    },
    {
      "inputs": [
        {
          "internalType": "address",
          "name": "_newWallet",
          "type": "address"
        }
      ],
      "name": "updatePlatformWallet",
      "outputs": [],
      "stateMutability": "nonpayable",
      "type": "function"
    }
  ],
  "bytecode": "0x60a06040526101f46003553480156200001757600080fd5b5060405162001e2f38038062001e2f8339810160408190526200003a91620001c8565b600160005533806200006757604051631e4fbdf760e01b8152600060048201526024015b60405180910390fd5b620000728162000159565b506001805460ff60a01b191690556001600160a01b038216620000d85760405162461bcd60e51b815260206004820152601460248201527f496e76616c69642055534443206164647265737300000000000000000000000060448201526064016200005e565b6001600160a01b038116620001305760405162461bcd60e51b815260206004820152601f60248201527f496e76616c696420706c6174666f726d2077616c6c657420616464726573730060448201526064016200005e565b6001600160a01b03918216608052600280546001600160a01b0319169190921617905562000200565b600180546001600160a01b038381166001600160a01b0319831681179093556040519116919082907f8be0079c531659141344cd1fd0a4f28419497f9722a3daafe3b4186f6b6457e090600090a35050565b80516001600160a01b0381168114620001c357600080fd5b919050565b60008060408385031215620001dc57600080fd5b620001e783620001ab565b9150620001f760208401620001ab565b90509250929050565b608051611be962000246600039600081816102060152818161059e015281816107ee015281816108ce01528181610d0a01528181610dea0152610ff00152611be96000f3fe608060405234801561001057600080fd5b506004361061012c5760003560e01c80638456cb59116100ad578063e334e8dd11610071578063e334e8dd14610277578063f023b8111461028a578063f2fde38b1461029d578063fa2af9da146102b0578063fac6725d146102c357600080fd5b80638456cb59146101f957806389a30271146102015780638da5cb5b14610240578063ada4ef3014610251578063b55737b01461026457600080fd5b80635e314b32116100f45780635e314b32146101af57806367afa362146101c2578063715018a6146101cb57806374950ffd146101d35780637b2e941e146101e657600080fd5b806309499aa6146101315780632d83549c1461014e5780633d2098d9146101745780633f4ba83a146101895780635c975abb14610191575b600080fd5b61013b6203f48081565b6040519081526020015b60405180910390f35b61016161015c3660046116f7565b6102d6565b6040516101459796959493929190611776565b6101876101823660046116f7565b6103b1565b005b610187610493565b600154600160a01b900460ff165b6040519015158152602001610145565b6101876101bd3660046116f7565b6104a5565b61013b60035481565b61018761068c565b6101876101e13660046116f7565b61069e565b6101876101f43660046116f7565b6109e2565b610187610afa565b6102287f000000000000000000000000000000000000000000000000000000000000000081565b6040516001600160a01b039091168152602001610145565b6001546001600160a01b0316610228565b61018761025f366004611804565b610b0a565b6101876102723660046116f7565b610bb2565b61013b610285366004611835565b610f1d565b6101616102983660046116f7565b61124d565b6101876102ab366004611804565b6113b6565b600254610228906001600160a01b031681565b61019f6102d13660046116f7565b6113f1565b60046020819052600091825260409091208054600182015460028301546003840154948401546005850180546001600160a01b03958616979490951695929460ff909216929161032590611900565b80601f016020809104026020016040519081016040528092919081815260200182805461035190611900565b801561039e5780601f106103735761010080835404028352916020019161039e565b820191906000526020600020905b81548152906001019060200180831161038157829003601f168201915b5050506006909301549192505060ff1687565b6103b9611561565b6000811161040e5760405162461bcd60e51b815260206004820152601a60248201527f466565206d7573742062652067726561746572207468616e203000000000000060448201526064015b60405180910390fd5b6103e88111156104585760405162461bcd60e51b81526020600482015260156024820152744665652063616e6e6f74206578636565642031302560581b6044820152606401610405565b60038190556040518181527fd00d28c258e482c27ef6378915c157978b6d44943a89c62c8b4eec350e4e27099060200160405180910390a150565b61049b611561565b6104a361158e565b565b6104ad611561565b6104b56115e3565b6000818152600460205260409020600681015460ff166104e75760405162461bcd60e51b81526004016104059061193a565b6005600482015460ff16600581111561050257610502611710565b1461054f5760405162461bcd60e51b815260206004820152601760248201527f457363726f77206d7573742062652064697370757465640000000000000000006044820152606401610405565b60028101546004820180546003919060ff1916600183021790555060068201805460ff19169055815460405163a9059cbb60e01b81526001600160a01b039182166004820152602481018390527f00000000000000000000000000000000000000000000000000000000000000009091169063a9059cbb906044016020604051808303816000875af11580156105e9573d6000803e3d6000fd5b505050506040513d601f19601f8201168201806040525081019061060d9190611964565b6106525760405162461bcd60e51b81526020600482015260166024820152751499599d5b99081d1c985b9cd9995c8819985a5b195960521b6044820152606401610405565b60405183907f7b08f2d2a35d68f512d4ee819cc6c616e61aa7cd7f7b0855d95ba090d84dc43690600090a250506106896001600055565b50565b610694611561565b6104a3600061160d565b6106a66115e3565b6106ae61165f565b6000818152600460205260409020600681015460ff166106e05760405162461bcd60e51b81526004016104059061193a565b80546001600160a01b031633146107325760405162461bcd60e51b81526020600482015260166024820152754f6e6c792062757965722063616e20636f6e6669726d60501b6044820152606401610405565b6001600482015460ff16600581111561074d5761074d611710565b1461076a5760405162461bcd60e51b815260040161040590611986565b6000612710600354836002015461078191906119ca565b61078b91906119e7565b9050600081836002015461079f9190611a09565b60048481018054929350909160ff1916600183021790555060068301805460ff19169055600183015460405163a9059cbb60e01b81526001600160a01b039182166004820152602481018390527f00000000000000000000000000000000000000000000000000000000000000009091169063a9059cbb906044016020604051808303816000875af1158015610839573d6000803e3d6000fd5b505050506040513d601f19601f8201168201806040525081019061085d9190611964565b6108a55760405162461bcd60e51b8152602060048201526019602482015278151c985b9cd9995c881d1bc81cd95b1b195c8819985a5b1959603a1b6044820152606401610405565b60025460405163a9059cbb60e01b81526001600160a01b039182166004820152602481018490527f00000000000000000000000000000000000000000000000000000000000000009091169063a9059cbb906044016020604051808303816000875af1158015610919573d6000803e3d6000fd5b505050506040513d601f19601f8201168201806040525081019061093d9190611964565b61097f5760405162461bcd60e51b8152602060048201526013602482015272119959481d1c985b9cd9995c8819985a5b1959606a1b6044820152606401610405565b60405184907f996d2feeb670af091dc22c54aa1d2d4606fa0c1701217bdefc494e61bf209d7c90600090a260405184907ff13b3bfa8cd084cadab3723a031c3f1c641ce6072626163d3100c1cd14c18a2890600090a25050506106896001600055565b6000818152600460205260409020600681015460ff16610a145760405162461bcd60e51b81526004016104059061193a565b80546001600160a01b0316331480610a38575060018101546001600160a01b031633145b610a845760405162461bcd60e51b815260206004820181905260248201527f4f6e6c79206275796572206f722073656c6c65722063616e20646973707574656044820152606401610405565b6001600482015460ff166005811115610a9f57610a9f611710565b14610abc5760405162461bcd60e51b815260040161040590611986565b60048101805460ff1916600517905560405182907f550ba3f95fa658596451573e6d789afa3858d8a992cb121712d3df88cff5765c90600090a25050565b610b02611561565b6104a361168a565b610b12611561565b6001600160a01b038116610b685760405162461bcd60e51b815260206004820152601f60248201527f496e76616c696420706c6174666f726d2077616c6c65742061646472657373006044820152606401610405565b600280546001600160a01b0319166001600160a01b0383169081179091556040517f73238e3ae0a71b401b31ae67204506d074de41bd5c084082fba9b64b1c7fa28f90600090a250565b610bba6115e3565b6000818152600460205260409020600681015460ff16610bec5760405162461bcd60e51b81526004016104059061193a565b6001600482015460ff166005811115610c0757610c07611710565b14610c245760405162461bcd60e51b815260040161040590611986565b6203f4808160030154610c379190611a1c565b421015610c865760405162461bcd60e51b815260206004820152601a60248201527f4175746f2d72656c656173652064656c6179206e6f74206d65740000000000006044820152606401610405565b60006127106003548360020154610c9d91906119ca565b610ca791906119e7565b90506000818360020154610cbb9190611a09565b60048481018054929350909160ff1916600183021790555060068301805460ff19169055600183015460405163a9059cbb60e01b81526001600160a01b039182166004820152602481018390527f00000000000000000000000000000000000000000000000000000000000000009091169063a9059cbb906044016020604051808303816000875af1158015610d55573d6000803e3d6000fd5b505050506040513d601f19601f82011682018060405250810190610d799190611964565b610dc15760405162461bcd60e51b8152602060048201526019602482015278151c985b9cd9995c881d1bc81cd95b1b195c8819985a5b1959603a1b6044820152606401610405565b60025460405163a9059cbb60e01b81526001600160a01b039182166004820152602481018490527f00000000000000000000000000000000000000000000000000000000000000009091169063a9059cbb906044016020604051808303816000875af1158015610e35573d6000803e3d6000fd5b505050506040513d601f19601f82011682018060405250810190610e599190611964565b610e9b5760405162461bcd60e51b8152602060048201526013602482015272119959481d1c985b9cd9995c8819985a5b1959606a1b6044820152606401610405565b6004838101805460ff1916600183021790555060068301805460ff1916905560405184907f996d2feeb670af091dc22c54aa1d2d4606fa0c1701217bdefc494e61bf209d7c90600090a260405184907ff13b3bfa8cd084cadab3723a031c3f1c641ce6072626163d3100c1cd14c18a2890600090a25050506106896001600055565b6000610f2761165f565b610f2f6115e3565b6001600160a01b038416610f7e5760405162461bcd60e51b8152602060048201526016602482015275496e76616c69642073656c6c6572206164647265737360501b6044820152606401610405565b60008311610fce5760405162461bcd60e51b815260206004820152601d60248201527f416d6f756e74206d7573742062652067726561746572207468616e20300000006044820152606401610405565b6040516323b872dd60e01b8152336004820152306024820152604481018490527f00000000000000000000000000000000000000000000000000000000000000006001600160a01b0316906323b872dd906064016020604051808303816000875af1158015611041573d6000803e3d6000fd5b505050506040513d601f19601f820116820180604052508101906110659190611964565b6110a85760405162461bcd60e51b81526020600482015260146024820152731554d110c81d1c985b9cd9995c8819985a5b195960621b6044820152606401610405565b600042338686866040516020016110c3959493929190611a2f565b60408051808303601f19018152828252805160209182012060e0840183523384526001600160a01b038981168386019081528585018a8152426060880190815260016080890181815260a08a018d905260c08a01829052600087815260049889905298909820895181549087166001600160a01b0319918216178255945181830180549190971695169490941790945590516002830155516003820155935192840180549296509160ff19169083600581111561118257611182611710565b021790555060a0820151600582019061119b9082611ad2565b5060c091909101516006909101805460ff19169115159190911790556040516001600160a01b03861690339083907fecfc64e6b5d00db90b689255403357841334dfc94584137e88c526dc65cbb713906111f89089908990611b92565b60405180910390a4807f08bc5e5162ba9d1a558b2d254f4739d54c8d7051230419652b328670bd68fc378560405161123291815260200190565b60405180910390a290506112466001600055565b9392505050565b6000818152600460208181526040808420815160e08101835281546001600160a01b039081168252600183015416938101939093526002810154918301919091526003810154606083810191909152928101548493849384938493849283929091608083019060ff1660058111156112c7576112c7611710565b60058111156112d8576112d8611710565b81526020016005820180546112ec90611900565b80601f016020809104026020016040519081016040528092919081815260200182805461131890611900565b80156113655780601f1061133a57610100808354040283529160200191611365565b820191906000526020600020905b81548152906001019060200180831161134857829003601f168201915b50505091835250506006919091015460ff16151560209182015281519082015160408301516060840151608085015160a086015160c090960151949f939e50919c509a509850919650945092505050565b6113be611561565b6001600160a01b0381166113e857604051631e4fbdf760e01b815260006004820152602401610405565b6106898161160d565b6000818152600460208181526040808420815160e08101835281546001600160a01b039081168252600183015416938101939093526002810154918301919091526003810154606083015291820154839290608083019060ff16600581111561145c5761145c611710565b600581111561146d5761146d611710565b815260200160058201805461148190611900565b80601f01602080910402602001604051908101604052809291908181526020018280546114ad90611900565b80156114fa5780601f106114cf576101008083540402835291602001916114fa565b820191906000526020600020905b8154815290600101906020018083116114dd57829003601f168201915b50505091835250506006919091015460ff16151560209091015260c0810151909150801561153d575060018160800151600581111561153b5761153b611710565b145b801561124657506203f48081606001516115579190611a1c565b4210159392505050565b6001546001600160a01b031633146104a35760405163118cdaa760e01b8152336004820152602401610405565b6115966116cd565b6001805460ff60a01b191690557f5db9ee0a495bf2e6ff9c91a7834c1ba4fdd244a5e8aa4e537bd38aeae4b073aa335b6040516001600160a01b03909116815260200160405180910390a1565b60026000540361160657604051633ee5aeb560e01b815260040160405180910390fd5b6002600055565b600180546001600160a01b038381166001600160a01b0319831681179093556040519116919082907f8be0079c531659141344cd1fd0a4f28419497f9722a3daafe3b4186f6b6457e090600090a35050565b600154600160a01b900460ff16156104a35760405163d93c066560e01b815260040160405180910390fd5b61169261165f565b6001805460ff60a01b1916600160a01b1790557f62e78cea01bee320cd4e420270b5ea74000d11b0c9f74754ebdbfc544b05a2586115c63390565b600154600160a01b900460ff166104a357604051638dfc202b60e01b815260040160405180910390fd5b60006020828403121561170957600080fd5b5035919050565b634e487b7160e01b600052602160045260246000fd5b60005b83811015611741578181015183820152602001611729565b50506000910152565b60008151808452611762816020860160208601611726565b601f01601f19169290920160200192915050565b6001600160a01b0388811682528716602082015260408101869052606081018590526000600685106117b857634e487b7160e01b600052602160045260246000fd5b84608083015260e060a08301526117d260e083018561174a565b905082151560c083015298975050505050505050565b80356001600160a01b03811681146117ff57600080fd5b919050565b60006020828403121561181657600080fd5b611246826117e8565b634e487b7160e01b600052604160045260246000fd5b60008060006060848603121561184a57600080fd5b611853846117e8565b925060208401359150604084013567ffffffffffffffff8082111561187757600080fd5b818601915086601f83011261188b57600080fd5b81358181111561189d5761189d61181f565b604051601f8201601f19908116603f011681019083821181831017156118c5576118c561181f565b816040528281528960208487010111156118de57600080fd5b8260208601602083013760006020848301015280955050505050509250925092565b600181811c9082168061191457607f821691505b60208210810361193457634e487b7160e01b600052602260045260246000fd5b50919050565b60208082526010908201526f115cd8dc9bddc81b9bdd08199bdd5b9960821b604082015260600190565b60006020828403121561197657600080fd5b8151801515811461124657600080fd5b602080825260149082015273496e76616c696420657363726f7720737461746560601b604082015260600190565b634e487b7160e01b600052601160045260246000fd5b80820281158282048414176119e1576119e16119b4565b92915050565b600082611a0457634e487b7160e01b600052601260045260246000fd5b500490565b818103818111156119e1576119e16119b4565b808201808211156119e1576119e16119b4565b85815260006bffffffffffffffffffffffff19808760601b166020840152808660601b166034840152508360488301528251611a72816068850160208701611726565b919091016068019695505050505050565b601f821115611acd57600081815260208120601f850160051c81016020861015611aaa5750805b601f850160051c820191505b81811015611ac957828155600101611ab6565b5050505b505050565b815167ffffffffffffffff811115611aec57611aec61181f565b611b0081611afa8454611900565b84611a83565b602080601f831160018114611b355760008415611b1d5750858301515b600019600386901b1c1916600185901b178555611ac9565b600085815260208120601f198616915b82811015611b6457888601518255948401946001909101908401611b45565b5085821015611b825787850151600019600388901b60f8161c191681555b5050505050600190811b01905550565b828152604060208201526000611bab604083018461174a565b94935050505056fea26469706673582212205e9bce68b46e86c12a9b4d27d9cc493cd82c7bcfb8204742057c83099a76c3ac64736f6c63430008140033",
  "linkReferences": {},
  "deployedLinkReferences": {}
}